{
  "_format": "hh-sol-artifact-1",
  "contractName": "Voting",
  "sourceName": "contracts_src/constituency/Voting.sol",
  "abi": [
    {
      "inputs": [
        {
          "internalType": "address",
          "name": "_tokenAddress",
          "type": "address"
        }
      ],
      "stateMutability": "nonpayable",
      "type": "constructor"
    },
    {
      "anonymous": false,
      "inputs": [
        {
          "indexed": true,
          "internalType": "uint256",
          "name": "candidateId",
          "type": "uint256"
        },
        {
          "indexed": false,
          "internalType": "string",
          "name": "name",
          "type": "string"
        },
        {
          "indexed": false,
          "internalType": "string",
          "name": "party",
          "type": "string"
        }
      ],
      "name": "CandidateAdded",
      "type": "event"
    },
    {
      "anonymous": false,
      "inputs": [
        {
          "indexed": false,
          "internalType": "bytes32",
          "name": "newRoot",
          "type": "bytes32"
        }
      ],
      "name": "MerkleRootUpdated",
      "type": "event"
    },
    {
      "anonymous": false,
      "inputs": [
        {
          "indexed": true,
          "internalType": "address",
          "name": "previousOwner",
          "type": "address"
        },
        {
          "indexed": true,
          "internalType": "address",
          "name": "newOwner",
          "type": "address"
        }
      ],
      "name": "OwnershipTransferred",
      "type": "event"
    },
    {
      "anonymous": false,
      "inputs": [
        {
          "indexed": true,
          "internalType": "address",
          "name": "voter",
          "type": "address"
        },
        {
          "indexed": true,
          "internalType": "uint256",
          "name": "candidateId",
          "type": "uint256"
        },
        {
          "indexed": false,
          "internalType": "uint256",
          "name": "timestamp",
          "type": "uint256"
        }
      ],
      "name": "VoteCast",
      "type": "event"
    },
    {
      "anonymous": false,
      "inputs": [
        {
          "indexed": false,
          "internalType": "uint256",
          "name": "endTime",
          "type": "uint256"
        },
        {
          "indexed": false,
          "internalType": "uint256",
          "name": "totalVotes",
          "type": "uint256"
        }
      ],
      "name": "VotingEnded",
      "type": "event"
    },
    {
      "anonymous": false,
      "inputs": [
        {
          "indexed": false,
          "internalType": "uint256",
          "name": "startTime",
          "type": "uint256"
        },
        {
          "indexed": false,
          "internalType": "uint256",
          "name": "endTime",
          "type": "uint256"
        }
      ],
      "name": "VotingStarted",
      "type": "event"
    },
    {
      "inputs": [
        {
          "internalType": "string",
          "name": "_name",
          "type": "string"
        },
        {
          "internalType": "string",
          "name": "_party",
          "type": "string"
        }
      ],
      "name": "addCandidate",
      "outputs": [],
      "stateMutability": "nonpayable",
      "type": "function"
    },
    {
      "inputs": [
        {
          "internalType": "bytes32[]",
          "name": "_proof",
          "type": "bytes32[]"
        },
        {
          "internalType": "bytes32",
          "name": "_leaf",
          "type": "bytes32"
        }
      ],
      "name": "batchVerifyVotes",
      "outputs": [
        {
          "internalType": "bool",
          "name": "",
          "type": "bool"
        }
      ],
      "stateMutability": "view",
      "type": "function"
    },
    {
      "inputs": [],
      "name": "candidateCount",
      "outputs": [
        {
          "internalType": "uint256",
          "name": "",
          "type": "uint256"
        }
      ],
      "stateMutability": "view",
      "type": "function"
    },
    {
      "inputs": [
        {
          "internalType": "uint256",
          "name": "",
          "type": "uint256"
        }
      ],
      "name": "candidateVotes",
      "outputs": [
        {
          "internalType": "uint256",
          "name": "",
          "type": "uint256"
        }
      ],
      "stateMutability": "view",
      "type": "function"
    },
    {
      "inputs": [
        {
          "internalType": "uint256",
          "name": "",
          "type": "uint256"
        }
      ],
      "name": "candidates",
      "outputs": [
        {
          "internalType": "uint256",
          "name": "id",
          "type": "uint256"
        },
        {
          "internalType": "string",
          "name": "name",
          "type": "string"
        },
        {
          "internalType": "string",
          "name": "party",
          "type": "string"
        },
        {
          "internalType": "uint256",
          "name": "voteCount",
          "type": "uint256"
        },
        {
          "internalType": "bool",
          "name": "isActive",
          "type": "bool"
        }
      ],
      "stateMutability": "view",
      "type": "function"
    },
    {
      "inputs": [
        {
          "internalType": "uint256",
          "name": "_candidateId",
          "type": "uint256"
        }
      ],
      "name": "castVote",
      "outputs": [],
      "stateMutability": "nonpayable",
      "type": "function"
    },
    {
      "inputs": [],
      "name": "constituencyToken",
      "outputs": [
        {
          "internalType": "contract ConstituencyToken",
          "name": "",
          "type": "address"
        }
      ],
      "stateMutability": "view",
      "type": "function"
    },
    {
      "inputs": [],
      "name": "endVoting",
      "outputs": [],
      "stateMutability": "nonpayable",
      "type": "function"
    },
    {
      "inputs": [
        {
          "internalType": "address",
          "name": "_voter",
          "type": "address"
        },
        {
          "internalType": "uint256",
          "name": "_candidateId",
          "type": "uint256"
        },
        {
          "internalType": "uint256",
          "name": "_timestamp",
          "type": "uint256"
        }
      ],
      "name": "generateVoteLeaf",
      "outputs": [
        {
          "internalType": "bytes32",
          "name": "",
          "type": "bytes32"
        }
      ],
      "stateMutability": "pure",
      "type": "function"
    },
    {
      "inputs": [],
      "name": "getAllCandidates",
      "outputs": [
        {
          "components": [
            {
              "internalType": "uint256",
              "name": "id",
              "type": "uint256"
            },
            {
              "internalType": "string",
              "name": "name",
              "type": "string"
            },
            {
              "internalType": "string",
              "name": "party",
              "type": "string"
            },
            {
              "internalType": "uint256",
              "name": "voteCount",
              "type": "uint256"
            },
            {
              "internalType": "bool",
              "name": "isActive",
              "type": "bool"
            }
          ],
          "internalType": "struct Voting.Candidate[]",
          "name": "",
          "type": "tuple[]"
        }
      ],
      "stateMutability": "view",
      "type": "function"
    },
    {
      "inputs": [
        {
          "internalType": "uint256",
          "name": "_candidateId",
          "type": "uint256"
        }
      ],
      "name": "getCandidate",
      "outputs": [
        {
          "components": [
            {
              "internalType": "uint256",
              "name": "id",
              "type": "uint256"
            },
            {
              "internalType": "string",
              "name": "name",
              "type": "string"
            },
            {
              "internalType": "string",
              "name": "party",
              "type": "string"
            },
            {
              "internalType": "uint256",
              "name": "voteCount",
              "type": "uint256"
            },
            {
              "internalType": "bool",
              "name": "isActive",
              "type": "bool"
            }
          ],
          "internalType": "struct Voting.Candidate",
          "name": "",
          "type": "tuple"
        }
      ],
      "stateMutability": "view",
      "type": "function"
    },
    {
      "inputs": [],
      "name": "getResults",
      "outputs": [
        {
          "internalType": "uint256[]",
          "name": "",
          "type": "uint256[]"
        },
        {
          "internalType": "uint256[]",
          "name": "",
          "type": "uint256[]"
        }
      ],
      "stateMutability": "view",
      "type": "function"
    },
    {
      "inputs": [
        {
          "internalType": "address",
          "name": "_voter",
          "type": "address"
        }
      ],
      "name": "getVoterVote",
      "outputs": [
        {
          "components": [
            {
              "internalType": "address",
              "name": "voter",
              "type": "address"
            },
            {
              "internalType": "uint256",
              "name": "candidateId",
              "type": "uint256"
            },
            {
              "internalType": "uint256",
              "name": "timestamp",
              "type": "uint256"
            },
            {
              "internalType": "bytes32",
              "name": "proof",
              "type": "bytes32"
            }
          ],
          "internalType": "struct Voting.Vote",
          "name": "",
          "type": "tuple"
        }
      ],
      "stateMutability": "view",
      "type": "function"
    },
    {
      "inputs": [],
      "name": "getVotingStats",
      "outputs": [
        {
          "internalType": "uint256",
          "name": "_totalVotes",
          "type": "uint256"
        },
        {
          "internalType": "uint256",
          "name": "_candidateCount",
          "type": "uint256"
        },
        {
          "internalType": "bool",
          "name": "_isActive",
          "type": "bool"
        },
        {
          "internalType": "uint256",
          "name": "_startTime",
          "type": "uint256"
        },
        {
          "internalType": "uint256",
          "name": "_endTime",
          "type": "uint256"
        }
      ],
      "stateMutability": "view",
      "type": "function"
    },
    {
      "inputs": [
        {
          "internalType": "address",
          "name": "",
          "type": "address"
        }
      ],
      "name": "hasVoted",
      "outputs": [
        {
          "internalType": "bool",
          "name": "",
          "type": "bool"
        }
      ],
      "stateMutability": "view",
      "type": "function"
    },
    {
      "inputs": [],
      "name": "merkleRoot",
      "outputs": [
        {
          "internalType": "bytes32",
          "name": "",
          "type": "bytes32"
        }
      ],
      "stateMutability": "view",
      "type": "function"
    },
    {
      "inputs": [],
      "name": "owner",
      "outputs": [
        {
          "internalType": "address",
          "name": "",
          "type": "address"
        }
      ],
      "stateMutability": "view",
      "type": "function"
    },
    {
      "inputs": [],
      "name": "renounceOwnership",
      "outputs": [],
      "stateMutability": "nonpayable",
      "type": "function"
    },
    {
      "inputs": [
        {
          "internalType": "uint256",
          "name": "_duration",
          "type": "uint256"
        }
      ],
      "name": "startVoting",
      "outputs": [],
      "stateMutability": "nonpayable",
      "type": "function"
    },
    {
      "inputs": [],
      "name": "totalVotes",
      "outputs": [
        {
          "internalType": "uint256",
          "name": "",
          "type": "uint256"
        }
      ],
      "stateMutability": "view",
      "type": "function"
    },
    {
      "inputs": [
        {
          "internalType": "address",
          "name": "newOwner",
          "type": "address"
        }
      ],
      "name": "transferOwnership",
      "outputs": [],
      "stateMutability": "nonpayable",
      "type": "function"
    },
    {
      "inputs": [
        {
          "internalType": "bytes32",
          "name": "_newRoot",
          "type": "bytes32"
        }
      ],
      "name": "updateMerkleRoot",
      "outputs": [],
      "stateMutability": "nonpayable",
      "type": "function"
    },
    {
      "inputs": [
        {
          "internalType": "bytes32",
          "name": "",
          "type": "bytes32"
        }
      ],
      "name": "usedProofs",
      "outputs": [
        {
          "internalType": "bool",
          "name": "",
          "type": "bool"
        }
      ],
      "stateMutability": "view",
      "type": "function"
    },
    {
      "inputs": [
        {
          "internalType": "address",
          "name": "",
          "type": "address"
        }
      ],
      "name": "votes",
      "outputs": [
        {
          "internalType": "address",
          "name": "voter",
          "type": "address"
        },
        {
          "internalType": "uint256",
          "name": "candidateId",
          "type": "uint256"
        },
        {
          "internalType": "uint256",
          "name": "timestamp",
          "type": "uint256"
        },
        {
          "internalType": "bytes32",
          "name": "proof",
          "type": "bytes32"
        }
      ],
      "stateMutability": "view",
      "type": "function"
    },
    {
      "inputs": [],
      "name": "votingActive",
      "outputs": [
        {
          "internalType": "bool",
          "name": "",
          "type": "bool"
        }
      ],
      "stateMutability": "view",
      "type": "function"
    },
    {
      "inputs": [],
      "name": "votingEndTime",
      "outputs": [
        {
          "internalType": "uint256",
          "name": "",
          "type": "uint256"
        }
      ],
      "stateMutability": "view",
      "type": "function"
    },
    {
      "inputs": [],
      "name": "votingStartTime",
      "outputs": [
        {
          "internalType": "uint256",
          "name": "",
          "type": "uint256"
        }
      ],
      "stateMutability": "view",
      "type": "function"
    }
  ],
  "bytecode": "0x60a060405234801561001057600080fd5b5060405162001cc138038062001cc1833981016040819052610031916100a2565b600160005561003f33610050565b6001600160a01b03166080526100d2565b600180546001600160a01b038381166001600160a01b0319831681179093556040519116919082907f8be0079c531659141344cd1fd0a4f28419497f9722a3daafe3b4186f6b6457e090600090a35050565b6000602082840312156100b457600080fd5b81516001600160a01b03811681146100cb57600080fd5b9392505050565b608051611bcc620000f5600039600081816101eb0152610d700152611bcc6000f3fe608060405234801561001057600080fd5b50600436106101a95760003560e01c80634717f97c116100f9578063a9a981a311610097578063d8bff5a511610071578063d8bff5a514610421578063dd0827dc1461048a578063f2fde38b146104e7578063f49e323e146104fa57600080fd5b8063a9a981a3146103ed578063c30a0f25146103f6578063c3403ddf1461041957600080fd5b8063715018a6116100d3578063715018a61461037757806376804a031461037f5780638da5cb5b146103c9578063a6b289ef146103da57600080fd5b80634717f97c146102ff5780634783f0ef146103155780635141e5201461032857600080fd5b80632e6997fe1161016657806335b8e8201161014057806335b8e820146102a55780633d2f5bda146102c55780633eb76b9c146102d8578063408e2727146102eb57600080fd5b80632e6997fe146102635780632eb4a7ab146102785780633477ee2e1461028157600080fd5b806309eef43e146101ae5780630aeafb71146101e65780630d15fd77146102255780631ea736e01461023c5780632019a6081461024557806326541b561461024e575b600080fd5b6101d16101bc3660046115b8565b60076020526000908152604090205460ff1681565b60405190151581526020015b60405180910390f35b61020d7f000000000000000000000000000000000000000000000000000000000000000081565b6040516001600160a01b0390911681526020016101dd565b61022e60045481565b6040519081526020016101dd565b61022e60035481565b61022e60025481565b61026161025c36600461168a565b61051a565b005b61026b61066f565b6040516101dd919061178f565b61022e600a5481565b61029461028f3660046117f1565b6108a8565b6040516101dd95949392919061180a565b6102b86102b33660046117f1565b6109eb565b6040516101dd919061184f565b6102616102d33660046117f1565b610be0565b6102616102e63660046117f1565b610cef565b6001546101d190600160a01b900460ff1681565b610307611094565b6040516101dd92919061189d565b6102616103233660046117f1565b6111b6565b61033b6103363660046115b8565b6111f3565b6040516101dd919081516001600160a01b0316815260208083015190820152604080830151908201526060918201519181019190915260800190565b6102616112c2565b600454600654600154600254600354600160a01b90920460ff16916040516101dd959493929190948552602085019390935290151560408401526060830152608082015260a00190565b6001546001600160a01b031661020d565b6101d16103e83660046118cb565b6112d6565b61022e60065481565b6101d16104043660046117f1565b600b6020526000908152604090205460ff1681565b6102616112ee565b61046061042f3660046115b8565b60086020526000908152604090208054600182015460028301546003909301546001600160a01b0390921692909184565b604080516001600160a01b03909516855260208501939093529183015260608201526080016101dd565b61022e610498366004611977565b6040516bffffffffffffffffffffffff19606085901b16602082015260348101839052605481018290526000906074016040516020818303038152906040528051906020012090509392505050565b6102616104f53660046115b8565b61138f565b61022e6105083660046117f1565b60096020526000908152604090205481565b610522611405565b600154600160a01b900460ff161561058d5760405162461bcd60e51b815260206004820152602360248201527f43616e6e6f74206164642063616e6469646174657320647572696e6720766f74604482015262696e6760e81b60648201526084015b60405180910390fd5b6006805490600061059d836119c0565b90915550506040805160a08101825260065480825260208083018681528385018690526000606085018190526001608086018190529381526005909252939020825181559251919291908201906105f49082611a5c565b50604082015160028201906106099082611a5c565b50606082015160038201556080909101516004909101805460ff19169115159190911790556006546040517fe64f834082661dd9ed89427b87edb6270fd6dad17198b0938f0edd058914c87f906106639085908590611b1c565b60405180910390a25050565b6060600060065467ffffffffffffffff81111561068e5761068e6115d3565b6040519080825280602002602001820160405280156106f357816020015b6106e06040518060a00160405280600081526020016060815260200160608152602001600081526020016000151581525090565b8152602001906001900390816106ac5790505b50905060015b60065481116108a257600560008281526020019081526020016000206040518060a00160405290816000820154815260200160018201805461073a906119d9565b80601f0160208091040260200160405190810160405280929190818152602001828054610766906119d9565b80156107b35780601f10610788576101008083540402835291602001916107b3565b820191906000526020600020905b81548152906001019060200180831161079657829003601f168201915b505050505081526020016002820180546107cc906119d9565b80601f01602080910402602001604051908101604052809291908181526020018280546107f8906119d9565b80156108455780601f1061081a57610100808354040283529160200191610845565b820191906000526020600020905b81548152906001019060200180831161082857829003601f168201915b50505091835250506003820154602082015260049091015460ff16151560409091015282610874600184611b41565b8151811061088457610884611b54565b6020026020010181905250808061089a906119c0565b9150506106f9565b50919050565b600560205260009081526040902080546001820180549192916108ca906119d9565b80601f01602080910402602001604051908101604052809291908181526020018280546108f6906119d9565b80156109435780601f1061091857610100808354040283529160200191610943565b820191906000526020600020905b81548152906001019060200180831161092657829003601f168201915b505050505090806002018054610958906119d9565b80601f0160208091040260200160405190810160405280929190818152602001828054610984906119d9565b80156109d15780601f106109a6576101008083540402835291602001916109d1565b820191906000526020600020905b8154815290600101906020018083116109b457829003601f168201915b50505050600383015460049093015491929160ff16905085565b610a1f6040518060a00160405280600081526020016060815260200160608152602001600081526020016000151581525090565b600082118015610a3157506006548211155b610a745760405162461bcd60e51b8152602060048201526014602482015273125b9d985b1a590818d85b991a59185d1948125160621b6044820152606401610584565b600560008381526020019081526020016000206040518060a001604052908160008201548152602001600182018054610aac906119d9565b80601f0160208091040260200160405190810160405280929190818152602001828054610ad8906119d9565b8015610b255780601f10610afa57610100808354040283529160200191610b25565b820191906000526020600020905b815481529060010190602001808311610b0857829003601f168201915b50505050508152602001600282018054610b3e906119d9565b80601f0160208091040260200160405190810160405280929190818152602001828054610b6a906119d9565b8015610bb75780601f10610b8c57610100808354040283529160200191610bb7565b820191906000526020600020905b815481529060010190602001808311610b9a57829003601f168201915b50505091835250506003820154602082015260049091015460ff16151560409091015292915050565b610be8611405565b600154600160a01b900460ff1615610c3a5760405162461bcd60e51b8152602060048201526015602482015274566f74696e6720616c72656164792061637469766560581b6044820152606401610584565b600060065411610c825760405162461bcd60e51b8152602060048201526013602482015272139bc818d85b991a59185d195cc81859191959606a1b6044820152606401610584565b6001805460ff60a01b1916600160a01b179055426002819055610ca6908290611b6a565b60038190556002546040517ff8c022056754dbacca05aff710dc315a2fa7699ae9309fda403cd1e55c11d40f92610ce4928252602082015260400190565b60405180910390a150565b600154600160a01b900460ff168015610d0a57506002544210155b8015610d1857506003544211155b610d585760405162461bcd60e51b8152602060048201526011602482015270566f74696e67206e6f742061637469766560781b6044820152606401610584565b6040516370a0823160e01b81523360048201526000907f00000000000000000000000000000000000000000000000000000000000000006001600160a01b0316906370a0823190602401602060405180830381865afa158015610dbf573d6000803e3d6000fd5b505050506040513d601f19601f82011682018060405250810190610de39190611b7d565b11610e275760405162461bcd60e51b81526020600482015260146024820152734e6f7420656c696769626c6520746f20766f746560601b6044820152606401610584565b3360009081526007602052604090205460ff1615610e775760405162461bcd60e51b815260206004820152600d60248201526c105b1c9958591e481d9bdd1959609a1b6044820152606401610584565b610e7f61145f565b600081118015610e9157506006548111155b610ed15760405162461bcd60e51b8152602060048201526011602482015270496e76616c69642063616e64696461746560781b6044820152606401610584565b60008181526005602052604090206004015460ff16610f295760405162461bcd60e51b815260206004820152601460248201527343616e646964617465206e6f742061637469766560601b6044820152606401610584565b33600081815260076020908152604091829020805460ff19166001179055815160808101835283815280820185905242818401819052925190936060850193610f9b93919287920160609390931b6bffffffffffffffffffffffff191683526014830191909152603482015260540190565b60408051808303601f19018152918152815160209283012090925233600090815260088252828120845181546001600160a01b0319166001600160a01b039091161781558483015160018201558484015160028201556060909401516003948501558481526005909152908120909101805491611017836119c0565b90915550506000818152600960205260408120805491611036836119c0565b90915550506004805490600061104b836119c0565b9091555050604051428152819033907fb4cfecf70861b7b150d8337780d34fb4cbc2114b5fb1fe51a5c5fca1849f72749060200160405180910390a36110916001600055565b50565b606080600060065467ffffffffffffffff8111156110b4576110b46115d3565b6040519080825280602002602001820160405280156110dd578160200160208202803683370190505b509050600060065467ffffffffffffffff8111156110fd576110fd6115d3565b604051908082528060200260200182016040528015611126578160200160208202803683370190505b50905060015b60065481116111ac578083611142600183611b41565b8151811061115257611152611b54565b6020908102919091018101919091526000828152600590915260409020600301548261117f600184611b41565b8151811061118f5761118f611b54565b6020908102919091010152806111a4816119c0565b91505061112c565b5090939092509050565b6111be611405565b600a8190556040518181527f90004c04698bc3322499a575ed3752dd4abf33e0a7294c06a787a0fe01bea94190602001610ce4565b6040805160808101825260008082526020808301829052828401829052606083018290526001600160a01b038516825260079052919091205460ff166112715760405162461bcd60e51b8152602060048201526013602482015272159bdd195c881a185cc81b9bdd081d9bdd1959606a1b6044820152606401610584565b506001600160a01b0390811660009081526008602090815260409182902082516080810184528154909416845260018101549184019190915260028101549183019190915260030154606082015290565b6112ca611405565b6112d460006114b8565b565b60006112e583600a548461150a565b90505b92915050565b6112f6611405565b600154600160a01b900460ff166113435760405162461bcd60e51b8152602060048201526011602482015270566f74696e67206e6f742061637469766560781b6044820152606401610584565b6001805460ff60a01b191690556004546040805142815260208101929092527f04e400203b6647e7ab88412380ee2430174c77bd98021012d3647eb3fa63f63f910160405180910390a1565b611397611405565b6001600160a01b0381166113fc5760405162461bcd60e51b815260206004820152602660248201527f4f776e61626c653a206e6577206f776e657220697320746865207a65726f206160448201526564647265737360d01b6064820152608401610584565b611091816114b8565b6001546001600160a01b031633146112d45760405162461bcd60e51b815260206004820181905260248201527f4f776e61626c653a2063616c6c6572206973206e6f7420746865206f776e65726044820152606401610584565b6002600054036114b15760405162461bcd60e51b815260206004820152601f60248201527f5265656e7472616e637947756172643a207265656e7472616e742063616c6c006044820152606401610584565b6002600055565b600180546001600160a01b038381166001600160a01b0319831681179093556040519116919082907f8be0079c531659141344cd1fd0a4f28419497f9722a3daafe3b4186f6b6457e090600090a35050565b6000826115178584611520565b14949350505050565b600081815b8451811015611565576115518286838151811061154457611544611b54565b602002602001015161156d565b91508061155d816119c0565b915050611525565b509392505050565b60008183106115895760008281526020849052604090206112e5565b60008381526020839052604090206112e5565b80356001600160a01b03811681146115b357600080fd5b919050565b6000602082840312156115ca57600080fd5b6112e58261159c565b634e487b7160e01b600052604160045260246000fd5b604051601f8201601f1916810167ffffffffffffffff81118282101715611612576116126115d3565b604052919050565b600082601f83011261162b57600080fd5b813567ffffffffffffffff811115611645576116456115d3565b611658601f8201601f19166020016115e9565b81815284602083860101111561166d57600080fd5b816020850160208301376000918101602001919091529392505050565b6000806040838503121561169d57600080fd5b823567ffffffffffffffff808211156116b557600080fd5b6116c18683870161161a565b935060208501359150808211156116d757600080fd5b506116e48582860161161a565b9150509250929050565b6000815180845260005b81811015611714576020818501810151868301820152016116f8565b506000602082860101526020601f19601f83011685010191505092915050565b805182526000602082015160a0602085015261175360a08501826116ee565b90506040830151848203604086015261176c82826116ee565b915050606083015160608501526080830151151560808501528091505092915050565b6000602080830181845280855180835260408601915060408160051b870101925083870160005b828110156117e457603f198886030184526117d2858351611734565b945092850192908501906001016117b6565b5092979650505050505050565b60006020828403121561180357600080fd5b5035919050565b85815260a06020820152600061182360a08301876116ee565b828103604084015261183581876116ee565b606084019590955250509015156080909101529392505050565b6020815260006112e56020830184611734565b600081518084526020808501945080840160005b8381101561189257815187529582019590820190600101611876565b509495945050505050565b6040815260006118b06040830185611862565b82810360208401526118c28185611862565b95945050505050565b600080604083850312156118de57600080fd5b823567ffffffffffffffff808211156118f657600080fd5b818501915085601f83011261190a57600080fd5b813560208282111561191e5761191e6115d3565b8160051b925061192f8184016115e9565b828152928401810192818101908985111561194957600080fd5b948201945b848610156119675785358252948201949082019061194e565b9997909101359750505050505050565b60008060006060848603121561198c57600080fd5b6119958461159c565b95602085013595506040909401359392505050565b634e487b7160e01b600052601160045260246000fd5b6000600182016119d2576119d26119aa565b5060010190565b600181811c908216806119ed57607f821691505b6020821081036108a257634e487b7160e01b600052602260045260246000fd5b601f821115611a5757600081815260208120601f850160051c81016020861015611a345750805b601f850160051c820191505b81811015611a5357828155600101611a40565b5050505b505050565b815167ffffffffffffffff811115611a7657611a766115d3565b611a8a81611a8484546119d9565b84611a0d565b602080601f831160018114611abf5760008415611aa75750858301515b600019600386901b1c1916600185901b178555611a53565b600085815260208120601f198616915b82811015611aee57888601518255948401946001909101908401611acf565b5085821015611b0c5787850151600019600388901b60f8161c191681555b5050505050600190811b01905550565b604081526000611b2f60408301856116ee565b82810360208401526118c281856116ee565b818103818111156112e8576112e86119aa565b634e487b7160e01b600052603260045260246000fd5b808201808211156112e8576112e86119aa565b600060208284031215611b8f57600080fd5b505191905056fea26469706673582212203d5517ac0d17d101de35c806aa49b2990025803deeb4289522469d9a53b507fc64736f6c63430008130033",
  "linkReferences": {},
  "deployedLinkReferences": {}
}