{
  "_format": "hh-sol-artifact-1",
  "contractName": "RollupBridge",
  "sourceName": "contracts_src/division/RollupBridge.sol",
  "abi": [
    {
      "inputs": [],
      "stateMutability": "nonpayable",
      "type": "constructor"
    },
    {
      "anonymous": false,
      "inputs": [
        {
          "indexed": true,
          "internalType": "uint256",
          "name": "constituencyId",
          "type": "uint256"
        },
        {
          "indexed": false,
          "internalType": "bytes32",
          "name": "merkleRoot",
          "type": "bytes32"
        },
        {
          "indexed": false,
          "internalType": "uint256",
          "name": "totalVotes",
          "type": "uint256"
        },
        {
          "indexed": false,
          "internalType": "address",
          "name": "submitter",
          "type": "address"
        }
      ],
      "name": "ConstituencyResultSubmitted",
      "type": "event"
    },
    {
      "anonymous": false,
      "inputs": [
        {
          "indexed": true,
          "internalType": "address",
          "name": "previousOwner",
          "type": "address"
        },
        {
          "indexed": true,
          "internalType": "address",
          "name": "newOwner",
          "type": "address"
        }
      ],
      "name": "OwnershipTransferred",
      "type": "event"
    },
    {
      "anonymous": false,
      "inputs": [
        {
          "indexed": false,
          "internalType": "address",
          "name": "account",
          "type": "address"
        }
      ],
      "name": "Paused",
      "type": "event"
    },
    {
      "anonymous": false,
      "inputs": [
        {
          "indexed": true,
          "internalType": "uint256",
          "name": "constituencyId",
          "type": "uint256"
        },
        {
          "indexed": false,
          "internalType": "bool",
          "name": "verified",
          "type": "bool"
        }
      ],
      "name": "ResultVerified",
      "type": "event"
    },
    {
      "anonymous": false,
      "inputs": [
        {
          "indexed": true,
          "internalType": "uint256",
          "name": "batchId",
          "type": "uint256"
        },
        {
          "indexed": false,
          "internalType": "bytes32",
          "name": "aggregatedRoot",
          "type": "bytes32"
        },
        {
          "indexed": false,
          "internalType": "uint256[]",
          "name": "constituencyIds",
          "type": "uint256[]"
        },
        {
          "indexed": false,
          "internalType": "uint256",
          "name": "totalVotes",
          "type": "uint256"
        }
      ],
      "name": "RollupBatchCreated",
      "type": "event"
    },
    {
      "anonymous": false,
      "inputs": [
        {
          "indexed": true,
          "internalType": "uint256",
          "name": "batchId",
          "type": "uint256"
        },
        {
          "indexed": false,
          "internalType": "uint256",
          "name": "signatureCount",
          "type": "uint256"
        }
      ],
      "name": "RollupBatchFinalized",
      "type": "event"
    },
    {
      "anonymous": false,
      "inputs": [
        {
          "indexed": false,
          "internalType": "address",
          "name": "account",
          "type": "address"
        }
      ],
      "name": "Unpaused",
      "type": "event"
    },
    {
      "anonymous": false,
      "inputs": [
        {
          "indexed": true,
          "internalType": "address",
          "name": "validator",
          "type": "address"
        }
      ],
      "name": "ValidatorAdded",
      "type": "event"
    },
    {
      "anonymous": false,
      "inputs": [
        {
          "indexed": true,
          "internalType": "address",
          "name": "validator",
          "type": "address"
        }
      ],
      "name": "ValidatorRemoved",
      "type": "event"
    },
    {
      "inputs": [
        {
          "internalType": "uint256",
          "name": "",
          "type": "uint256"
        }
      ],
      "name": "activeValidators",
      "outputs": [
        {
          "internalType": "address",
          "name": "",
          "type": "address"
        }
      ],
      "stateMutability": "view",
      "type": "function"
    },
    {
      "inputs": [
        {
          "internalType": "address",
          "name": "_validator",
          "type": "address"
        }
      ],
      "name": "addValidator",
      "outputs": [],
      "stateMutability": "nonpayable",
      "type": "function"
    },
    {
      "inputs": [],
      "name": "batchCount",
      "outputs": [
        {
          "internalType": "uint256",
          "name": "",
          "type": "uint256"
        }
      ],
      "stateMutability": "view",
      "type": "function"
    },
    {
      "inputs": [
        {
          "internalType": "uint256",
          "name": "",
          "type": "uint256"
        }
      ],
      "name": "batchSignatureCount",
      "outputs": [
        {
          "internalType": "uint256",
          "name": "",
          "type": "uint256"
        }
      ],
      "stateMutability": "view",
      "type": "function"
    },
    {
      "inputs": [
        {
          "internalType": "uint256",
          "name": "",
          "type": "uint256"
        },
        {
          "internalType": "address",
          "name": "",
          "type": "address"
        }
      ],
      "name": "batchSignatures",
      "outputs": [
        {
          "internalType": "bool",
          "name": "",
          "type": "bool"
        }
      ],
      "stateMutability": "view",
      "type": "function"
    },
    {
      "inputs": [],
      "name": "constituencyCount",
      "outputs": [
        {
          "internalType": "uint256",
          "name": "",
          "type": "uint256"
        }
      ],
      "stateMutability": "view",
      "type": "function"
    },
    {
      "inputs": [
        {
          "internalType": "uint256",
          "name": "",
          "type": "uint256"
        }
      ],
      "name": "constituencyResults",
      "outputs": [
        {
          "internalType": "uint256",
          "name": "constituencyId",
          "type": "uint256"
        },
        {
          "internalType": "bytes32",
          "name": "merkleRoot",
          "type": "bytes32"
        },
        {
          "internalType": "uint256",
          "name": "totalVotes",
          "type": "uint256"
        },
        {
          "internalType": "uint256",
          "name": "timestamp",
          "type": "uint256"
        },
        {
          "internalType": "address",
          "name": "submitter",
          "type": "address"
        },
        {
          "internalType": "bool",
          "name": "verified",
          "type": "bool"
        }
      ],
      "stateMutability": "view",
      "type": "function"
    },
    {
      "inputs": [
        {
          "internalType": "uint256[]",
          "name": "_constituencyIds",
          "type": "uint256[]"
        }
      ],
      "name": "createRollupBatch",
      "outputs": [],
      "stateMutability": "nonpayable",
      "type": "function"
    },
    {
      "inputs": [
        {
          "internalType": "address",
          "name": "_validator",
          "type": "address"
        }
      ],
      "name": "forceValidator",
      "outputs": [],
      "stateMutability": "nonpayable",
      "type": "function"
    },
    {
      "inputs": [
        {
          "internalType": "uint256",
          "name": "_constituencyId",
          "type": "uint256"
        }
      ],
      "name": "forceVerifyConstituency",
      "outputs": [],
      "stateMutability": "nonpayable",
      "type": "function"
    },
    {
      "inputs": [],
      "name": "getActiveValidators",
      "outputs": [
        {
          "internalType": "address[]",
          "name": "",
          "type": "address[]"
        }
      ],
      "stateMutability": "view",
      "type": "function"
    },
    {
      "inputs": [
        {
          "internalType": "uint256",
          "name": "_constituencyId",
          "type": "uint256"
        },
        {
          "internalType": "uint256",
          "name": "_candidateId",
          "type": "uint256"
        }
      ],
      "name": "getConstituencyCandidateVotes",
      "outputs": [
        {
          "internalType": "uint256",
          "name": "",
          "type": "uint256"
        }
      ],
      "stateMutability": "view",
      "type": "function"
    },
    {
      "inputs": [
        {
          "internalType": "uint256",
          "name": "_constituencyId",
          "type": "uint256"
        }
      ],
      "name": "getConstituencyResult",
      "outputs": [
        {
          "internalType": "bytes32",
          "name": "merkleRoot",
          "type": "bytes32"
        },
        {
          "internalType": "uint256",
          "name": "totalVotes",
          "type": "uint256"
        },
        {
          "internalType": "uint256",
          "name": "timestamp",
          "type": "uint256"
        },
        {
          "internalType": "address",
          "name": "submitter",
          "type": "address"
        },
        {
          "internalType": "bool",
          "name": "verified",
          "type": "bool"
        }
      ],
      "stateMutability": "view",
      "type": "function"
    },
    {
      "inputs": [
        {
          "internalType": "uint256",
          "name": "_batchId",
          "type": "uint256"
        }
      ],
      "name": "getRollupBatch",
      "outputs": [
        {
          "components": [
            {
              "internalType": "uint256",
              "name": "batchId",
              "type": "uint256"
            },
            {
              "internalType": "bytes32",
              "name": "aggregatedRoot",
              "type": "bytes32"
            },
            {
              "internalType": "uint256[]",
              "name": "constituencyIds",
              "type": "uint256[]"
            },
            {
              "internalType": "uint256",
              "name": "totalVotes",
              "type": "uint256"
            },
            {
              "internalType": "uint256",
              "name": "timestamp",
              "type": "uint256"
            },
            {
              "internalType": "bool",
              "name": "finalized",
              "type": "bool"
            }
          ],
          "internalType": "struct RollupBridge.RollupBatch",
          "name": "",
          "type": "tuple"
        }
      ],
      "stateMutability": "view",
      "type": "function"
    },
    {
      "inputs": [],
      "name": "lastRollupTime",
      "outputs": [
        {
          "internalType": "uint256",
          "name": "",
          "type": "uint256"
        }
      ],
      "stateMutability": "view",
      "type": "function"
    },
    {
      "inputs": [],
      "name": "minValidatorReputation",
      "outputs": [
        {
          "internalType": "uint256",
          "name": "",
          "type": "uint256"
        }
      ],
      "stateMutability": "view",
      "type": "function"
    },
    {
      "inputs": [],
      "name": "owner",
      "outputs": [
        {
          "internalType": "address",
          "name": "",
          "type": "address"
        }
      ],
      "stateMutability": "view",
      "type": "function"
    },
    {
      "inputs": [],
      "name": "pause",
      "outputs": [],
      "stateMutability": "nonpayable",
      "type": "function"
    },
    {
      "inputs": [],
      "name": "paused",
      "outputs": [
        {
          "internalType": "bool",
          "name": "",
          "type": "bool"
        }
      ],
      "stateMutability": "view",
      "type": "function"
    },
    {
      "inputs": [
        {
          "internalType": "bytes32",
          "name": "",
          "type": "bytes32"
        }
      ],
      "name": "processedRoots",
      "outputs": [
        {
          "internalType": "bool",
          "name": "",
          "type": "bool"
        }
      ],
      "stateMutability": "view",
      "type": "function"
    },
    {
      "inputs": [
        {
          "internalType": "address",
          "name": "_validator",
          "type": "address"
        }
      ],
      "name": "removeValidator",
      "outputs": [],
      "stateMutability": "nonpayable",
      "type": "function"
    },
    {
      "inputs": [],
      "name": "renounceOwnership",
      "outputs": [],
      "stateMutability": "nonpayable",
      "type": "function"
    },
    {
      "inputs": [],
      "name": "requiredSignatures",
      "outputs": [
        {
          "internalType": "uint256",
          "name": "",
          "type": "uint256"
        }
      ],
      "stateMutability": "view",
      "type": "function"
    },
    {
      "inputs": [
        {
          "internalType": "uint256",
          "name": "",
          "type": "uint256"
        }
      ],
      "name": "rollupBatches",
      "outputs": [
        {
          "internalType": "uint256",
          "name": "batchId",
          "type": "uint256"
        },
        {
          "internalType": "bytes32",
          "name": "aggregatedRoot",
          "type": "bytes32"
        },
        {
          "internalType": "uint256",
          "name": "totalVotes",
          "type": "uint256"
        },
        {
          "internalType": "uint256",
          "name": "timestamp",
          "type": "uint256"
        },
        {
          "internalType": "bool",
          "name": "finalized",
          "type": "bool"
        }
      ],
      "stateMutability": "view",
      "type": "function"
    },
    {
      "inputs": [],
      "name": "rollupInterval",
      "outputs": [
        {
          "internalType": "uint256",
          "name": "",
          "type": "uint256"
        }
      ],
      "stateMutability": "view",
      "type": "function"
    },
    {
      "inputs": [
        {
          "internalType": "uint256",
          "name": "_required",
          "type": "uint256"
        }
      ],
      "name": "setRequiredSignatures",
      "outputs": [],
      "stateMutability": "nonpayable",
      "type": "function"
    },
    {
      "inputs": [
        {
          "internalType": "uint256",
          "name": "_interval",
          "type": "uint256"
        }
      ],
      "name": "setRollupInterval",
      "outputs": [],
      "stateMutability": "nonpayable",
      "type": "function"
    },
    {
      "inputs": [
        {
          "internalType": "uint256",
          "name": "_batchId",
          "type": "uint256"
        }
      ],
      "name": "signRollupBatch",
      "outputs": [],
      "stateMutability": "nonpayable",
      "type": "function"
    },
    {
      "inputs": [
        {
          "internalType": "uint256",
          "name": "_constituencyId",
          "type": "uint256"
        },
        {
          "internalType": "bytes32",
          "name": "_merkleRoot",
          "type": "bytes32"
        },
        {
          "internalType": "uint256",
          "name": "_totalVotes",
          "type": "uint256"
        },
        {
          "internalType": "uint256[]",
          "name": "_candidateIds",
          "type": "uint256[]"
        },
        {
          "internalType": "uint256[]",
          "name": "_candidateVotes",
          "type": "uint256[]"
        }
      ],
      "name": "submitConstituencyResult",
      "outputs": [],
      "stateMutability": "nonpayable",
      "type": "function"
    },
    {
      "inputs": [
        {
          "internalType": "address",
          "name": "newOwner",
          "type": "address"
        }
      ],
      "name": "transferOwnership",
      "outputs": [],
      "stateMutability": "nonpayable",
      "type": "function"
    },
    {
      "inputs": [],
      "name": "unpause",
      "outputs": [],
      "stateMutability": "nonpayable",
      "type": "function"
    },
    {
      "inputs": [
        {
          "internalType": "address",
          "name": "",
          "type": "address"
        }
      ],
      "name": "validators",
      "outputs": [
        {
          "internalType": "address",
          "name": "validatorAddress",
          "type": "address"
        },
        {
          "internalType": "bool",
          "name": "isActive",
          "type": "bool"
        },
        {
          "internalType": "uint256",
          "name": "reputation",
          "type": "uint256"
        },
        {
          "internalType": "uint256",
          "name": "lastSubmission",
          "type": "uint256"
        }
      ],
      "stateMutability": "view",
      "type": "function"
    },
    {
      "inputs": [
        {
          "internalType": "uint256",
          "name": "_constituencyId",
          "type": "uint256"
        },
        {
          "internalType": "bytes32[]",
          "name": "_proof",
          "type": "bytes32[]"
        },
        {
          "internalType": "bytes32",
          "name": "_leaf",
          "type": "bytes32"
        }
      ],
      "name": "verifyConstituencyResult",
      "outputs": [
        {
          "internalType": "bool",
          "name": "",
          "type": "bool"
        }
      ],
      "stateMutability": "nonpayable",
      "type": "function"
    }
  ],
  "bytecode": "0x6080604052610e10600a556000600c556002600d5534801561002057600080fd5b5061002a33610041565b600180556002805460ff1916905542600b55610091565b600080546001600160a01b038381166001600160a01b0319831681178455604051919092169283917f8be0079c531659141344cd1fd0a4f28419497f9722a3daafe3b4186f6b6457e09190a35050565b611fc9806100a06000396000f3fe608060405234801561001057600080fd5b50600436106101fb5760003560e01c8063677b8b921161011a5780639c71bd71116100ad578063d522e3961161007c578063d522e396146105cf578063db6975351461065a578063ea3e47f51461066d578063f2fde38b14610676578063fa52c7d81461068957600080fd5b80639c71bd71146105145780639ddc690a146105945780639de70258146105a75780639eba15c8146105bc57600080fd5b80637d2b9cc0116100e95780637d2b9cc0146104df5780638456cb59146104f25780638d068043146104fa5780638da5cb5b1461050357600080fd5b8063677b8b921461048b5780636c33f1a8146104ae578063715018a6146104b757806378c74181146104bf57600080fd5b80633f4ba83a1161019257806357e7b6b51161016157806357e7b6b5146103785780635c806e291461038b5780635c975abb1461044e5780636156f4381461045957600080fd5b80633f4ba83a146102df57806340a141ff146102e75780634d238c8e146102fa57806351c772021461030d57600080fd5b806314f64c78116101ce57806314f64c781461028257806316650125146102ad5780631828d760146102cd57806333752fa8146102d657600080fd5b806306f13056146102005780630a61ed4e1461021c5780630af3362b146102315780630c73c4681461026f575b600080fd5b61020960095481565b6040519081526020015b60405180910390f35b61022f61022a366004611ae4565b6106f7565b005b61025f61023f366004611b19565b600e60209081526000928352604080842090915290825290205460ff1681565b6040519015158152602001610213565b61022f61027d366004611ae4565b610704565b610295610290366004611ae4565b6108cb565b6040516001600160a01b039091168152602001610213565b6102c06102bb366004611ae4565b6108f5565b6040516102139190611b45565b610209600c5481565b610209600b5481565b61022f6109d8565b61022f6102f5366004611bd6565b6109ea565b61022f610308366004611bd6565b610bb9565b61034e61031b366004611ae4565b60046020819052600091825260409091208054600182015460038301549383015460059093015491939092909160ff1685565b6040805195865260208601949094529284019190915260608301521515608082015260a001610213565b61022f610386366004611cc7565b610d0e565b61022f610399366004611bd6565b604080516080810182526001600160a01b0392831680825260016020808401828152600c548587019081524260608701908152600086815260059094529683209551865492511515600160a01b026001600160a81b031990931698169790971717845594518382015592516002909201919091556007805492830181559092527fa66cc928b5edb82af9bd49922954155ab7b0942694bea4ce44661d9a8736c6880180546001600160a01b0319169091179055565b60025460ff1661025f565b61022f610467366004611ae4565b6000908152600360205260409020600401805460ff60a01b1916600160a01b179055565b61025f610499366004611ae4565b60066020526000908152604090205460ff1681565b61020960085481565b61022f610ffb565b6102096104cd366004611ae4565b600f6020526000908152604090205481565b61022f6104ed366004611ae4565b61100d565b61022f611078565b610209600d5481565b6000546001600160a01b0316610295565b610561610522366004611ae4565b6000908152600360208190526040909120600181015460028201549282015460049092015490936001600160a01b03821691600160a01b900460ff1690565b604080519586526020860194909452928401919091526001600160a01b031660608301521515608082015260a001610213565b6102096105a2366004611d48565b611088565b6105af6110ac565b6040516102139190611d6a565b61025f6105ca366004611db7565b61110e565b6106226105dd366004611ae4565b6003602081905260009182526040909120805460018201546002830154938301546004909301549193909290916001600160a01b03811690600160a01b900460ff1686565b6040805196875260208701959095529385019290925260608401526001600160a01b03166080830152151560a082015260c001610213565b61022f610668366004611e5c565b61121d565b610209600a5481565b61022f610684366004611bd6565b61157f565b6106cd610697366004611bd6565b6005602052600090815260409020805460018201546002909201546001600160a01b03821692600160a01b90920460ff16919084565b604080516001600160a01b0390951685529215156020850152918301526060820152608001610213565b6106ff6115f5565b600a55565b60008111801561071657506009548111155b61075a5760405162461bcd60e51b815260206004820152601060248201526f125b9d985b1a590818985d18da08125160821b60448201526064015b60405180910390fd5b60008181526004602052604090206005015460ff16156107bc5760405162461bcd60e51b815260206004820152601760248201527f426174636820616c72656164792066696e616c697a65640000000000000000006044820152606401610751565b6000818152600e6020908152604080832033845290915290205460ff16156108175760405162461bcd60e51b815260206004820152600e60248201526d105b1c9958591e481cda59db995960921b6044820152606401610751565b6000818152600e602090815260408083203384528252808320805460ff19166001179055838352600f909152812080549161085183611eaf565b9091555050600d546000828152600f6020526040902054106108c8576000818152600460209081526040808320600501805460ff19166001179055600f82529182902054915191825282917f509bce0d654d5d377f3564aea0d506732663656f11d3d3ae3de7055754bce662910160405180910390a25b50565b600781815481106108db57600080fd5b6000918252602090912001546001600160a01b0316905081565b6109336040518060c0016040528060008152602001600080191681526020016060815260200160008152602001600081526020016000151581525090565b600082815260046020908152604091829020825160c08101845281548152600182015481840152600282018054855181860281018601875281815292959394938601938301828280156109a557602002820191906000526020600020905b815481526020019060010190808311610991575b5050509183525050600382015460208201526004820154604082015260059091015460ff16151560609091015292915050565b6109e06115f5565b6109e861164f565b565b6109f26115f5565b6001600160a01b038116600090815260056020526040902054600160a01b900460ff16610a585760405162461bcd60e51b815260206004820152601460248201527356616c696461746f72206e6f742061637469766560601b6044820152606401610751565b6001600160a01b0381166000908152600560205260408120805460ff60a01b191690555b600754811015610b8157816001600160a01b031660078281548110610aa357610aa3611ec8565b6000918252602090912001546001600160a01b031603610b6f5760078054610acd90600190611ede565b81548110610add57610add611ec8565b600091825260209091200154600780546001600160a01b039092169183908110610b0957610b09611ec8565b9060005260206000200160006101000a8154816001600160a01b0302191690836001600160a01b031602179055506007805480610b4857610b48611ef1565b600082815260209020810160001990810180546001600160a01b0319169055019055610b81565b80610b7981611eaf565b915050610a7c565b506040516001600160a01b038216907fe1434e25d6611e0db941968fdc97811c982ac1602e951637d206f5fdda9dd8f190600090a250565b610bc16115f5565b6001600160a01b038116600090815260056020526040902054600160a01b900460ff1615610c315760405162461bcd60e51b815260206004820152601860248201527f56616c696461746f7220616c72656164792061637469766500000000000000006044820152606401610751565b604080516080810182526001600160a01b0380841680835260016020808501828152600c5486880190815260006060880181815286825260059094528881209751885493511515600160a01b026001600160a81b031990941697169690961791909117865551858301555160029094019390935560078054938401815582527fa66cc928b5edb82af9bd49922954155ab7b0942694bea4ce44661d9a8736c68890920180546001600160a01b03191683179055915190917fe366c1c0452ed8eec96861e9e54141ebff23c9ec89fe27b996b45f5ec388498791a250565b610d166116a1565b610d1e6116e7565b8051825114610d675760405162461bcd60e51b8152602060048201526015602482015274082e4e4c2f240d8cadccee8d040dad2e6dac2e8c6d605b1b6044820152606401610751565b60008481526006602052604090205460ff1615610dc65760405162461bcd60e51b815260206004820152601d60248201527f4d65726b6c6520726f6f7420616c72656164792070726f6365737365640000006044820152606401610751565b60008511610e165760405162461bcd60e51b815260206004820152601760248201527f496e76616c696420636f6e7374697475656e63792049440000000000000000006044820152606401610751565b6000805b8251811015610e5c57828181518110610e3557610e35611ec8565b602002602001015182610e489190611f07565b915080610e5481611eaf565b915050610e1a565b50838114610ea25760405162461bcd60e51b81526020600482015260136024820152720acdee8ca40c6deeadce840dad2e6dac2e8c6d606b1b6044820152606401610751565b60008681526003602081905260408220888155600181018890556002810187905542918101919091556004810180546001600160a81b0319163360ff60a01b1916179055905b8451811015610f5057838181518110610f0357610f03611ec8565b6020026020010151826005016000878481518110610f2357610f23611ec8565b60200260200101518152602001908152602001600020819055508080610f4890611eaf565b915050610ee8565b506000868152600660209081526040808320805460ff1916600190811790915533845260059092528220426002820155018054600a9290610f92908490611f07565b9091555050600854871115610fa75760088790555b60408051878152602081018790523381830152905188917f90538b18d5f5e1921799abfea94f786fd5072451b61c0f9f2805fb0ce2d28685919081900360600190a25050610ff460018055565b5050505050565b6110036115f5565b6109e86000611740565b6110156115f5565b60008111801561102757506007548111155b6110735760405162461bcd60e51b815260206004820152601d60248201527f496e76616c6964207369676e617475726520726571756972656d656e740000006044820152606401610751565b600d55565b6110806115f5565b6109e8611790565b60008281526003602090815260408083208484526005019091529020545b92915050565b6060600780548060200260200160405190810160405280929190818152602001828054801561110457602002820191906000526020600020905b81546001600160a01b031681526001909101906020018083116110e6575b5050505050905090565b6000838152600360205260408120600181015461116d5760405162461bcd60e51b815260206004820152601d60248201527f436f6e7374697475656e637920726573756c74206e6f7420666f756e640000006044820152606401610751565b600061117e858360010154866117cd565b905080801561119957506004820154600160a01b900460ff16155b156112145760048201805460ff60a01b1916600160a01b17905533600090815260056020819052604082206001018054919290916111d8908490611f07565b90915550506040516001815286907fe9ed74a178730ed14d99780c6af00e8e666e1d070c3701878e727fb1327331319060200160405180910390a25b95945050505050565b600a54600b5461122d9190611f07565b4210156112755760405162461bcd60e51b81526020600482015260166024820152752937b6363ab8103bb4b73237bb903737ba1037b832b760511b6044820152606401610751565b61127d6116a1565b6112856116e7565b60008151116112d65760405162461bcd60e51b815260206004820152601a60248201527f4e6f20636f6e7374697475656e636965732070726f76696465640000000000006044820152606401610751565b600080825167ffffffffffffffff8111156112f3576112f3611bf1565b60405190808252806020026020018201604052801561131c578160200160208202803683370190505b50905060005b835181101561145357600084828151811061133f5761133f611ec8565b6020908102919091018101516000818152600390925260409091206001810154919250906113af5760405162461bcd60e51b815260206004820152601d60248201527f436f6e7374697475656e637920726573756c74206e6f7420666f756e640000006044820152606401610751565b6004810154600160a01b900460ff1661140a5760405162461bcd60e51b815260206004820181905260248201527f436f6e7374697475656e637920726573756c74206e6f742076657269666965646044820152606401610751565b60028101546114199086611f07565b9450806001015484848151811061143257611432611ec8565b6020026020010181815250505050808061144b90611eaf565b915050611322565b50600061145f826117e3565b60098054919250600061147183611eaf565b90915550506040805160c081018252600954808252602080830185815283850189815260608501899052426080860152600060a086018190529384526004835294909220835181559151600183015592518051929391926114d89260028501920190611a84565b50606082015160038201556080820151600482015560a0909101516005918201805460ff191691151591909117905542600b553360009081526020919091526040812060010180546014929061152f908490611f07565b90915550506009546040517f25bf489b8b0a2525a4f43650a87dae0b3a47cfd678bd1bd79c49e181d81db4219061156b90849088908890611f1a565b60405180910390a25050506108c860018055565b6115876115f5565b6001600160a01b0381166115ec5760405162461bcd60e51b815260206004820152602660248201527f4f776e61626c653a206e6577206f776e657220697320746865207a65726f206160448201526564647265737360d01b6064820152608401610751565b6108c881611740565b6000546001600160a01b031633146109e85760405162461bcd60e51b815260206004820181905260248201527f4f776e61626c653a2063616c6c6572206973206e6f7420746865206f776e65726044820152606401610751565b6116576119bc565b6002805460ff191690557f5db9ee0a495bf2e6ff9c91a7834c1ba4fdd244a5e8aa4e537bd38aeae4b073aa335b6040516001600160a01b03909116815260200160405180910390a1565b60025460ff16156109e85760405162461bcd60e51b815260206004820152601060248201526f14185d5cd8589b194e881c185d5cd95960821b6044820152606401610751565b6002600154036117395760405162461bcd60e51b815260206004820152601f60248201527f5265656e7472616e637947756172643a207265656e7472616e742063616c6c006044820152606401610751565b6002600155565b600080546001600160a01b038381166001600160a01b0319831681178455604051919092169283917f8be0079c531659141344cd1fd0a4f28419497f9722a3daafe3b4186f6b6457e09190a35050565b6117986116a1565b6002805460ff191660011790557f62e78cea01bee320cd4e420270b5ea74000d11b0c9f74754ebdbfc544b05a2586116843390565b6000826117da8584611a05565b14949350505050565b60008151600103611810578160008151811061180157611801611ec8565b60200260200101519050919050565b815b60018151111561199957600060028251600161182e9190611f07565b6118389190611f71565b67ffffffffffffffff81111561185057611850611bf1565b604051908082528060200260200182016040528015611879578160200160208202803683370190505b50905060005b8251811015611991578251611895826001611f07565b101561193a578281815181106118ad576118ad611ec8565b6020026020010151838260016118c39190611f07565b815181106118d3576118d3611ec8565b60200260200101516040516020016118f5929190918252602082015260400190565b60405160208183030381529060405280519060200120826002836119199190611f71565b8151811061192957611929611ec8565b60200260200101818152505061197f565b82818151811061194c5761194c611ec8565b6020026020010151826002836119629190611f71565b8151811061197257611972611ec8565b6020026020010181815250505b61198a600282611f07565b905061187f565b509050611812565b806000815181106119ac576119ac611ec8565b6020026020010151915050919050565b60025460ff166109e85760405162461bcd60e51b815260206004820152601460248201527314185d5cd8589b194e881b9bdd081c185d5cd95960621b6044820152606401610751565b600081815b8451811015611a4a57611a3682868381518110611a2957611a29611ec8565b6020026020010151611a52565b915080611a4281611eaf565b915050611a0a565b509392505050565b6000818310611a6e576000828152602084905260409020611a7d565b60008381526020839052604090205b9392505050565b828054828255906000526020600020908101928215611abf579160200282015b82811115611abf578251825591602001919060010190611aa4565b50611acb929150611acf565b5090565b5b80821115611acb5760008155600101611ad0565b600060208284031215611af657600080fd5b5035919050565b80356001600160a01b0381168114611b1457600080fd5b919050565b60008060408385031215611b2c57600080fd5b82359150611b3c60208401611afd565b90509250929050565b6000602080835260e08301845182850152818501516040850152604085015160c06060860152818151808452610100870191508483019350600092505b80831015611ba25783518252928401926001929092019190840190611b82565b5060608701516080870152608087015160a087015260a08701519350611bcc60c087018515159052565b9695505050505050565b600060208284031215611be857600080fd5b611a7d82611afd565b634e487b7160e01b600052604160045260246000fd5b604051601f8201601f1916810167ffffffffffffffff81118282101715611c3057611c30611bf1565b604052919050565b600067ffffffffffffffff821115611c5257611c52611bf1565b5060051b60200190565b600082601f830112611c6d57600080fd5b81356020611c82611c7d83611c38565b611c07565b82815260059290921b84018101918181019086841115611ca157600080fd5b8286015b84811015611cbc5780358352918301918301611ca5565b509695505050505050565b600080600080600060a08688031215611cdf57600080fd5b853594506020860135935060408601359250606086013567ffffffffffffffff80821115611d0c57600080fd5b611d1889838a01611c5c565b93506080880135915080821115611d2e57600080fd5b50611d3b88828901611c5c565b9150509295509295909350565b60008060408385031215611d5b57600080fd5b50508035926020909101359150565b6020808252825182820181905260009190848201906040850190845b81811015611dab5783516001600160a01b031683529284019291840191600101611d86565b50909695505050505050565b600080600060608486031215611dcc57600080fd5b8335925060208085013567ffffffffffffffff811115611deb57600080fd5b8501601f81018713611dfc57600080fd5b8035611e0a611c7d82611c38565b81815260059190911b82018301908381019089831115611e2957600080fd5b928401925b82841015611e4757833582529284019290840190611e2e565b96999698505050506040949094013593505050565b600060208284031215611e6e57600080fd5b813567ffffffffffffffff811115611e8557600080fd5b611e9184828501611c5c565b949350505050565b634e487b7160e01b600052601160045260246000fd5b600060018201611ec157611ec1611e99565b5060010190565b634e487b7160e01b600052603260045260246000fd5b818103818111156110a6576110a6611e99565b634e487b7160e01b600052603160045260246000fd5b808201808211156110a6576110a6611e99565b6000606082018583526020606081850152818651808452608086019150828801935060005b81811015611f5b57845183529383019391830191600101611f3f565b5050809350505050826040830152949350505050565b600082611f8e57634e487b7160e01b600052601260045260246000fd5b50049056fea2646970667358221220f2250365eee2274ccc6ad943882dbb8da3fdaa23227dbd150ac6cefbe8ace1fc64736f6c63430008130033",
  "linkReferences": {},
  "deployedLinkReferences": {}
}