{
  "_format": "hh-sol-artifact-1",
  "contractName": "ConstituencyToken",
  "sourceName": "contracts_src/constituency/ConstituencyToken.sol",
  "abi": [
    {
      "inputs": [
        {
          "internalType": "string",
          "name": "_name",
          "type": "string"
        },
        {
          "internalType": "string",
          "name": "_symbol",
          "type": "string"
        },
        {
          "internalType": "uint256",
          "name": "_initialSupply",
          "type": "uint256"
        }
      ],
      "stateMutability": "nonpayable",
      "type": "constructor"
    },
    {
      "inputs": [],
      "name": "InvalidShortString",
      "type": "error"
    },
    {
      "inputs": [
        {
          "internalType": "string",
          "name": "str",
          "type": "string"
        }
      ],
      "name": "StringTooLong",
      "type": "error"
    },
    {
      "anonymous": false,
      "inputs": [
        {
          "indexed": true,
          "internalType": "address",
          "name": "owner",
          "type": "address"
        },
        {
          "indexed": true,
          "internalType": "address",
          "name": "spender",
          "type": "address"
        },
        {
          "indexed": false,
          "internalType": "uint256",
          "name": "value",
          "type": "uint256"
        }
      ],
      "name": "Approval",
      "type": "event"
    },
    {
      "anonymous": false,
      "inputs": [
        {
          "indexed": true,
          "internalType": "address",
          "name": "delegator",
          "type": "address"
        },
        {
          "indexed": true,
          "internalType": "address",
          "name": "fromDelegate",
          "type": "address"
        },
        {
          "indexed": true,
          "internalType": "address",
          "name": "toDelegate",
          "type": "address"
        }
      ],
      "name": "DelegateChanged",
      "type": "event"
    },
    {
      "anonymous": false,
      "inputs": [
        {
          "indexed": true,
          "internalType": "address",
          "name": "delegate",
          "type": "address"
        },
        {
          "indexed": false,
          "internalType": "uint256",
          "name": "previousBalance",
          "type": "uint256"
        },
        {
          "indexed": false,
          "internalType": "uint256",
          "name": "newBalance",
          "type": "uint256"
        }
      ],
      "name": "DelegateVotesChanged",
      "type": "event"
    },
    {
      "anonymous": false,
      "inputs": [
        {
          "indexed": true,
          "internalType": "address",
          "name": "delegator",
          "type": "address"
        },
        {
          "indexed": true,
          "internalType": "address",
          "name": "validator",
          "type": "address"
        },
        {
          "indexed": false,
          "internalType": "uint256",
          "name": "amount",
          "type": "uint256"
        }
      ],
      "name": "DelegationWithdrawn",
      "type": "event"
    },
    {
      "anonymous": false,
      "inputs": [],
      "name": "EIP712DomainChanged",
      "type": "event"
    },
    {
      "anonymous": false,
      "inputs": [
        {
          "indexed": true,
          "internalType": "address",
          "name": "previousOwner",
          "type": "address"
        },
        {
          "indexed": true,
          "internalType": "address",
          "name": "newOwner",
          "type": "address"
        }
      ],
      "name": "OwnershipTransferred",
      "type": "event"
    },
    {
      "anonymous": false,
      "inputs": [
        {
          "indexed": false,
          "internalType": "address",
          "name": "account",
          "type": "address"
        }
      ],
      "name": "Paused",
      "type": "event"
    },
    {
      "anonymous": false,
      "inputs": [
        {
          "indexed": true,
          "internalType": "address",
          "name": "validator",
          "type": "address"
        },
        {
          "indexed": false,
          "internalType": "uint256",
          "name": "amount",
          "type": "uint256"
        }
      ],
      "name": "RewardsClaimed",
      "type": "event"
    },
    {
      "anonymous": false,
      "inputs": [
        {
          "indexed": true,
          "internalType": "address",
          "name": "delegator",
          "type": "address"
        },
        {
          "indexed": true,
          "internalType": "address",
          "name": "validator",
          "type": "address"
        },
        {
          "indexed": false,
          "internalType": "uint256",
          "name": "amount",
          "type": "uint256"
        }
      ],
      "name": "TokensDelegated",
      "type": "event"
    },
    {
      "anonymous": false,
      "inputs": [
        {
          "indexed": true,
          "internalType": "address",
          "name": "staker",
          "type": "address"
        },
        {
          "indexed": true,
          "internalType": "address",
          "name": "validator",
          "type": "address"
        },
        {
          "indexed": false,
          "internalType": "uint256",
          "name": "amount",
          "type": "uint256"
        }
      ],
      "name": "TokensStaked",
      "type": "event"
    },
    {
      "anonymous": false,
      "inputs": [
        {
          "indexed": true,
          "internalType": "address",
          "name": "staker",
          "type": "address"
        },
        {
          "indexed": true,
          "internalType": "address",
          "name": "validator",
          "type": "address"
        },
        {
          "indexed": false,
          "internalType": "uint256",
          "name": "amount",
          "type": "uint256"
        }
      ],
      "name": "TokensUnstaked",
      "type": "event"
    },
    {
      "anonymous": false,
      "inputs": [
        {
          "indexed": true,
          "internalType": "address",
          "name": "from",
          "type": "address"
        },
        {
          "indexed": true,
          "internalType": "address",
          "name": "to",
          "type": "address"
        },
        {
          "indexed": false,
          "internalType": "uint256",
          "name": "value",
          "type": "uint256"
        }
      ],
      "name": "Transfer",
      "type": "event"
    },
    {
      "anonymous": false,
      "inputs": [
        {
          "indexed": false,
          "internalType": "address",
          "name": "account",
          "type": "address"
        }
      ],
      "name": "Unpaused",
      "type": "event"
    },
    {
      "anonymous": false,
      "inputs": [
        {
          "indexed": true,
          "internalType": "address",
          "name": "validator",
          "type": "address"
        }
      ],
      "name": "ValidatorDeactivated",
      "type": "event"
    },
    {
      "anonymous": false,
      "inputs": [
        {
          "indexed": true,
          "internalType": "address",
          "name": "validator",
          "type": "address"
        },
        {
          "indexed": false,
          "internalType": "uint256",
          "name": "stakedAmount",
          "type": "uint256"
        }
      ],
      "name": "ValidatorRegistered",
      "type": "event"
    },
    {
      "inputs": [],
      "name": "CLOCK_MODE",
      "outputs": [
        {
          "internalType": "string",
          "name": "",
          "type": "string"
        }
      ],
      "stateMutability": "view",
      "type": "function"
    },
    {
      "inputs": [],
      "name": "DOMAIN_SEPARATOR",
      "outputs": [
        {
          "internalType": "bytes32",
          "name": "",
          "type": "bytes32"
        }
      ],
      "stateMutability": "view",
      "type": "function"
    },
    {
      "inputs": [],
      "name": "MAX_SUPPLY",
      "outputs": [
        {
          "internalType": "uint256",
          "name": "",
          "type": "uint256"
        }
      ],
      "stateMutability": "view",
      "type": "function"
    },
    {
      "inputs": [],
      "name": "MIN_STAKE",
      "outputs": [
        {
          "internalType": "uint256",
          "name": "",
          "type": "uint256"
        }
      ],
      "stateMutability": "view",
      "type": "function"
    },
    {
      "inputs": [],
      "name": "VALIDATOR_REWARD",
      "outputs": [
        {
          "internalType": "uint256",
          "name": "",
          "type": "uint256"
        }
      ],
      "stateMutability": "view",
      "type": "function"
    },
    {
      "inputs": [
        {
          "internalType": "uint256",
          "name": "",
          "type": "uint256"
        }
      ],
      "name": "activeValidators",
      "outputs": [
        {
          "internalType": "address",
          "name": "",
          "type": "address"
        }
      ],
      "stateMutability": "view",
      "type": "function"
    },
    {
      "inputs": [],
      "name": "advanceBlock",
      "outputs": [],
      "stateMutability": "nonpayable",
      "type": "function"
    },
    {
      "inputs": [
        {
          "internalType": "address",
          "name": "owner",
          "type": "address"
        },
        {
          "internalType": "address",
          "name": "spender",
          "type": "address"
        }
      ],
      "name": "allowance",
      "outputs": [
        {
          "internalType": "uint256",
          "name": "",
          "type": "uint256"
        }
      ],
      "stateMutability": "view",
      "type": "function"
    },
    {
      "inputs": [
        {
          "internalType": "address",
          "name": "spender",
          "type": "address"
        },
        {
          "internalType": "uint256",
          "name": "amount",
          "type": "uint256"
        }
      ],
      "name": "approve",
      "outputs": [
        {
          "internalType": "bool",
          "name": "",
          "type": "bool"
        }
      ],
      "stateMutability": "nonpayable",
      "type": "function"
    },
    {
      "inputs": [
        {
          "internalType": "address",
          "name": "account",
          "type": "address"
        }
      ],
      "name": "balanceOf",
      "outputs": [
        {
          "internalType": "uint256",
          "name": "",
          "type": "uint256"
        }
      ],
      "stateMutability": "view",
      "type": "function"
    },
    {
      "inputs": [
        {
          "internalType": "address",
          "name": "account",
          "type": "address"
        },
        {
          "internalType": "uint32",
          "name": "pos",
          "type": "uint32"
        }
      ],
      "name": "checkpoints",
      "outputs": [
        {
          "components": [
            {
              "internalType": "uint32",
              "name": "fromBlock",
              "type": "uint32"
            },
            {
              "internalType": "uint224",
              "name": "votes",
              "type": "uint224"
            }
          ],
          "internalType": "struct ERC20Votes.Checkpoint",
          "name": "",
          "type": "tuple"
        }
      ],
      "stateMutability": "view",
      "type": "function"
    },
    {
      "inputs": [],
      "name": "claimRewards",
      "outputs": [],
      "stateMutability": "nonpayable",
      "type": "function"
    },
    {
      "inputs": [],
      "name": "clock",
      "outputs": [
        {
          "internalType": "uint48",
          "name": "",
          "type": "uint48"
        }
      ],
      "stateMutability": "view",
      "type": "function"
    },
    {
      "inputs": [],
      "name": "currentBlock",
      "outputs": [
        {
          "internalType": "uint256",
          "name": "",
          "type": "uint256"
        }
      ],
      "stateMutability": "view",
      "type": "function"
    },
    {
      "inputs": [],
      "name": "decimals",
      "outputs": [
        {
          "internalType": "uint8",
          "name": "",
          "type": "uint8"
        }
      ],
      "stateMutability": "view",
      "type": "function"
    },
    {
      "inputs": [
        {
          "internalType": "address",
          "name": "spender",
          "type": "address"
        },
        {
          "internalType": "uint256",
          "name": "subtractedValue",
          "type": "uint256"
        }
      ],
      "name": "decreaseAllowance",
      "outputs": [
        {
          "internalType": "bool",
          "name": "",
          "type": "bool"
        }
      ],
      "stateMutability": "nonpayable",
      "type": "function"
    },
    {
      "inputs": [
        {
          "internalType": "address",
          "name": "delegatee",
          "type": "address"
        }
      ],
      "name": "delegate",
      "outputs": [],
      "stateMutability": "nonpayable",
      "type": "function"
    },
    {
      "inputs": [
        {
          "internalType": "address",
          "name": "delegatee",
          "type": "address"
        },
        {
          "internalType": "uint256",
          "name": "nonce",
          "type": "uint256"
        },
        {
          "internalType": "uint256",
          "name": "expiry",
          "type": "uint256"
        },
        {
          "internalType": "uint8",
          "name": "v",
          "type": "uint8"
        },
        {
          "internalType": "bytes32",
          "name": "r",
          "type": "bytes32"
        },
        {
          "internalType": "bytes32",
          "name": "s",
          "type": "bytes32"
        }
      ],
      "name": "delegateBySig",
      "outputs": [],
      "stateMutability": "nonpayable",
      "type": "function"
    },
    {
      "inputs": [
        {
          "internalType": "address",
          "name": "_validator",
          "type": "address"
        },
        {
          "internalType": "uint256",
          "name": "_amount",
          "type": "uint256"
        }
      ],
      "name": "delegateTokens",
      "outputs": [],
      "stateMutability": "nonpayable",
      "type": "function"
    },
    {
      "inputs": [
        {
          "internalType": "address",
          "name": "account",
          "type": "address"
        }
      ],
      "name": "delegates",
      "outputs": [
        {
          "internalType": "address",
          "name": "",
          "type": "address"
        }
      ],
      "stateMutability": "view",
      "type": "function"
    },
    {
      "inputs": [
        {
          "internalType": "address",
          "name": "",
          "type": "address"
        },
        {
          "internalType": "address",
          "name": "",
          "type": "address"
        }
      ],
      "name": "delegations",
      "outputs": [
        {
          "internalType": "uint256",
          "name": "",
          "type": "uint256"
        }
      ],
      "stateMutability": "view",
      "type": "function"
    },
    {
      "inputs": [
        {
          "internalType": "address",
          "name": "",
          "type": "address"
        },
        {
          "internalType": "uint256",
          "name": "",
          "type": "uint256"
        }
      ],
      "name": "delegatorValidators",
      "outputs": [
        {
          "internalType": "address",
          "name": "",
          "type": "address"
        }
      ],
      "stateMutability": "view",
      "type": "function"
    },
    {
      "inputs": [],
      "name": "eip712Domain",
      "outputs": [
        {
          "internalType": "bytes1",
          "name": "fields",
          "type": "bytes1"
        },
        {
          "internalType": "string",
          "name": "name",
          "type": "string"
        },
        {
          "internalType": "string",
          "name": "version",
          "type": "string"
        },
        {
          "internalType": "uint256",
          "name": "chainId",
          "type": "uint256"
        },
        {
          "internalType": "address",
          "name": "verifyingContract",
          "type": "address"
        },
        {
          "internalType": "bytes32",
          "name": "salt",
          "type": "bytes32"
        },
        {
          "internalType": "uint256[]",
          "name": "extensions",
          "type": "uint256[]"
        }
      ],
      "stateMutability": "view",
      "type": "function"
    },
    {
      "inputs": [],
      "name": "getActiveValidators",
      "outputs": [
        {
          "internalType": "address[]",
          "name": "",
          "type": "address[]"
        }
      ],
      "stateMutability": "view",
      "type": "function"
    },
    {
      "inputs": [
        {
          "internalType": "address",
          "name": "_delegator",
          "type": "address"
        },
        {
          "internalType": "address",
          "name": "_validator",
          "type": "address"
        }
      ],
      "name": "getDelegation",
      "outputs": [
        {
          "internalType": "uint256",
          "name": "",
          "type": "uint256"
        }
      ],
      "stateMutability": "view",
      "type": "function"
    },
    {
      "inputs": [
        {
          "internalType": "address",
          "name": "_delegator",
          "type": "address"
        }
      ],
      "name": "getDelegatorValidators",
      "outputs": [
        {
          "internalType": "address[]",
          "name": "",
          "type": "address[]"
        }
      ],
      "stateMutability": "view",
      "type": "function"
    },
    {
      "inputs": [
        {
          "internalType": "uint256",
          "name": "timepoint",
          "type": "uint256"
        }
      ],
      "name": "getPastTotalSupply",
      "outputs": [
        {
          "internalType": "uint256",
          "name": "",
          "type": "uint256"
        }
      ],
      "stateMutability": "view",
      "type": "function"
    },
    {
      "inputs": [
        {
          "internalType": "address",
          "name": "account",
          "type": "address"
        },
        {
          "internalType": "uint256",
          "name": "timepoint",
          "type": "uint256"
        }
      ],
      "name": "getPastVotes",
      "outputs": [
        {
          "internalType": "uint256",
          "name": "",
          "type": "uint256"
        }
      ],
      "stateMutability": "view",
      "type": "function"
    },
    {
      "inputs": [
        {
          "internalType": "address",
          "name": "_validator",
          "type": "address"
        }
      ],
      "name": "getValidator",
      "outputs": [
        {
          "components": [
            {
              "internalType": "address",
              "name": "validatorAddress",
              "type": "address"
            },
            {
              "internalType": "uint256",
              "name": "stakedAmount",
              "type": "uint256"
            },
            {
              "internalType": "uint256",
              "name": "delegatedAmount",
              "type": "uint256"
            },
            {
              "internalType": "bool",
              "name": "isActive",
              "type": "bool"
            },
            {
              "internalType": "uint256",
              "name": "rewardsClaimed",
              "type": "uint256"
            },
            {
              "internalType": "uint256",
              "name": "lastRewardBlock",
              "type": "uint256"
            }
          ],
          "internalType": "struct ConstituencyToken.Validator",
          "name": "",
          "type": "tuple"
        }
      ],
      "stateMutability": "view",
      "type": "function"
    },
    {
      "inputs": [
        {
          "internalType": "address",
          "name": "_validator",
          "type": "address"
        }
      ],
      "name": "getValidatorPower",
      "outputs": [
        {
          "internalType": "uint256",
          "name": "",
          "type": "uint256"
        }
      ],
      "stateMutability": "view",
      "type": "function"
    },
    {
      "inputs": [
        {
          "internalType": "address",
          "name": "account",
          "type": "address"
        }
      ],
      "name": "getVotes",
      "outputs": [
        {
          "internalType": "uint256",
          "name": "",
          "type": "uint256"
        }
      ],
      "stateMutability": "view",
      "type": "function"
    },
    {
      "inputs": [
        {
          "internalType": "address",
          "name": "spender",
          "type": "address"
        },
        {
          "internalType": "uint256",
          "name": "addedValue",
          "type": "uint256"
        }
      ],
      "name": "increaseAllowance",
      "outputs": [
        {
          "internalType": "bool",
          "name": "",
          "type": "bool"
        }
      ],
      "stateMutability": "nonpayable",
      "type": "function"
    },
    {
      "inputs": [
        {
          "internalType": "address",
          "name": "_to",
          "type": "address"
        },
        {
          "internalType": "uint256",
          "name": "_amount",
          "type": "uint256"
        }
      ],
      "name": "mint",
      "outputs": [],
      "stateMutability": "nonpayable",
      "type": "function"
    },
    {
      "inputs": [],
      "name": "name",
      "outputs": [
        {
          "internalType": "string",
          "name": "",
          "type": "string"
        }
      ],
      "stateMutability": "view",
      "type": "function"
    },
    {
      "inputs": [
        {
          "internalType": "address",
          "name": "owner",
          "type": "address"
        }
      ],
      "name": "nonces",
      "outputs": [
        {
          "internalType": "uint256",
          "name": "",
          "type": "uint256"
        }
      ],
      "stateMutability": "view",
      "type": "function"
    },
    {
      "inputs": [
        {
          "internalType": "address",
          "name": "account",
          "type": "address"
        }
      ],
      "name": "numCheckpoints",
      "outputs": [
        {
          "internalType": "uint32",
          "name": "",
          "type": "uint32"
        }
      ],
      "stateMutability": "view",
      "type": "function"
    },
    {
      "inputs": [],
      "name": "owner",
      "outputs": [
        {
          "internalType": "address",
          "name": "",
          "type": "address"
        }
      ],
      "stateMutability": "view",
      "type": "function"
    },
    {
      "inputs": [],
      "name": "pause",
      "outputs": [],
      "stateMutability": "nonpayable",
      "type": "function"
    },
    {
      "inputs": [],
      "name": "paused",
      "outputs": [
        {
          "internalType": "bool",
          "name": "",
          "type": "bool"
        }
      ],
      "stateMutability": "view",
      "type": "function"
    },
    {
      "inputs": [
        {
          "internalType": "address",
          "name": "owner",
          "type": "address"
        },
        {
          "internalType": "address",
          "name": "spender",
          "type": "address"
        },
        {
          "internalType": "uint256",
          "name": "value",
          "type": "uint256"
        },
        {
          "internalType": "uint256",
          "name": "deadline",
          "type": "uint256"
        },
        {
          "internalType": "uint8",
          "name": "v",
          "type": "uint8"
        },
        {
          "internalType": "bytes32",
          "name": "r",
          "type": "bytes32"
        },
        {
          "internalType": "bytes32",
          "name": "s",
          "type": "bytes32"
        }
      ],
      "name": "permit",
      "outputs": [],
      "stateMutability": "nonpayable",
      "type": "function"
    },
    {
      "inputs": [],
      "name": "registerValidator",
      "outputs": [],
      "stateMutability": "nonpayable",
      "type": "function"
    },
    {
      "inputs": [],
      "name": "renounceOwnership",
      "outputs": [],
      "stateMutability": "nonpayable",
      "type": "function"
    },
    {
      "inputs": [
        {
          "internalType": "uint256",
          "name": "_amount",
          "type": "uint256"
        }
      ],
      "name": "stakeTokens",
      "outputs": [],
      "stateMutability": "nonpayable",
      "type": "function"
    },
    {
      "inputs": [],
      "name": "symbol",
      "outputs": [
        {
          "internalType": "string",
          "name": "",
          "type": "string"
        }
      ],
      "stateMutability": "view",
      "type": "function"
    },
    {
      "inputs": [],
      "name": "totalStaked",
      "outputs": [
        {
          "internalType": "uint256",
          "name": "",
          "type": "uint256"
        }
      ],
      "stateMutability": "view",
      "type": "function"
    },
    {
      "inputs": [],
      "name": "totalSupply",
      "outputs": [
        {
          "internalType": "uint256",
          "name": "",
          "type": "uint256"
        }
      ],
      "stateMutability": "view",
      "type": "function"
    },
    {
      "inputs": [
        {
          "internalType": "address",
          "name": "to",
          "type": "address"
        },
        {
          "internalType": "uint256",
          "name": "amount",
          "type": "uint256"
        }
      ],
      "name": "transfer",
      "outputs": [
        {
          "internalType": "bool",
          "name": "",
          "type": "bool"
        }
      ],
      "stateMutability": "nonpayable",
      "type": "function"
    },
    {
      "inputs": [
        {
          "internalType": "address",
          "name": "from",
          "type": "address"
        },
        {
          "internalType": "address",
          "name": "to",
          "type": "address"
        },
        {
          "internalType": "uint256",
          "name": "amount",
          "type": "uint256"
        }
      ],
      "name": "transferFrom",
      "outputs": [
        {
          "internalType": "bool",
          "name": "",
          "type": "bool"
        }
      ],
      "stateMutability": "nonpayable",
      "type": "function"
    },
    {
      "inputs": [
        {
          "internalType": "address",
          "name": "newOwner",
          "type": "address"
        }
      ],
      "name": "transferOwnership",
      "outputs": [],
      "stateMutability": "nonpayable",
      "type": "function"
    },
    {
      "inputs": [],
      "name": "unpause",
      "outputs": [],
      "stateMutability": "nonpayable",
      "type": "function"
    },
    {
      "inputs": [
        {
          "internalType": "uint256",
          "name": "_amount",
          "type": "uint256"
        }
      ],
      "name": "unstakeTokens",
      "outputs": [],
      "stateMutability": "nonpayable",
      "type": "function"
    },
    {
      "inputs": [
        {
          "internalType": "address",
          "name": "",
          "type": "address"
        }
      ],
      "name": "validators",
      "outputs": [
        {
          "internalType": "address",
          "name": "validatorAddress",
          "type": "address"
        },
        {
          "internalType": "uint256",
          "name": "stakedAmount",
          "type": "uint256"
        },
        {
          "internalType": "uint256",
          "name": "delegatedAmount",
          "type": "uint256"
        },
        {
          "internalType": "bool",
          "name": "isActive",
          "type": "bool"
        },
        {
          "internalType": "uint256",
          "name": "rewardsClaimed",
          "type": "uint256"
        },
        {
          "internalType": "uint256",
          "name": "lastRewardBlock",
          "type": "uint256"
        }
      ],
      "stateMutability": "view",
      "type": "function"
    },
    {
      "inputs": [
        {
          "internalType": "address",
          "name": "_validator",
          "type": "address"
        },
        {
          "internalType": "uint256",
          "name": "_amount",
          "type": "uint256"
        }
      ],
      "name": "withdrawDelegation",
      "outputs": [],
      "stateMutability": "nonpayable",
      "type": "function"
    }
  ],
  "bytecode": "0x6101606040523480156200001257600080fd5b506040516200429f3803806200429f83398101604081905262000035916200095b565b6040805180820190915260018152603160f81b6020820152839081908185600362000061838262000a5c565b50600462000070828262000a5c565b506200008291508390506005620001b8565b6101205262000093816006620001b8565b61014052815160208084019190912060e052815190820120610100524660a0526200012160e05161010051604080517f8b73c3c69bb8fe3d512ecc4cf759cc79239f7b179b0ffacaa9a75d522b39400f60208201529081019290925260608201524660808201523060a082015260009060c00160405160208183030381529060405280519060200120905090565b60805250503060c052506200013633620001f1565b600c805460ff60a01b1916905569d3c21bcecceda1000000811115620001a35760405162461bcd60e51b815260206004820152601e60248201527f496e697469616c20737570706c792065786365656473206d6178696d756d000060448201526064015b60405180910390fd5b620001af338262000243565b50505062000bc4565b6000602083511015620001d857620001d08362000253565b9050620001eb565b81620001e5848262000a5c565b5060ff90505b92915050565b600c80546001600160a01b038381166001600160a01b0319831681179093556040519116919082907f8be0079c531659141344cd1fd0a4f28419497f9722a3daafe3b4186f6b6457e090600090a35050565b6200024f828262000296565b5050565b600080829050601f8151111562000281578260405163305a27a960e01b81526004016200019a919062000b28565b80516200028e8262000b5d565b179392505050565b620002a282826200033e565b6001600160e01b03620002b66200040b8216565b11156200031f5760405162461bcd60e51b815260206004820152603060248201527f4552433230566f7465733a20746f74616c20737570706c79207269736b73206f60448201526f766572666c6f77696e6720766f74657360801b60648201526084016200019a565b62000338600b62001d696200041160201b178362000426565b50505050565b6001600160a01b038216620003965760405162461bcd60e51b815260206004820152601f60248201527f45524332303a206d696e7420746f20746865207a65726f20616464726573730060448201526064016200019a565b8060026000828254620003aa919062000b98565b90915550506001600160a01b038216600081815260208181526040808320805486019055518481527fddf252ad1be2c89b69c2b068fc378daa952ba7f163c4a11628f55a4df523b3ef910160405180910390a36200024f60008383620005b3565b60025490565b60006200041f828462000b98565b9392505050565b82546000908190818115620004755760008781526020902082016000190160408051808201909152905463ffffffff8116825264010000000090046001600160e01b031660208201526200048a565b60408051808201909152600080825260208201525b905080602001516001600160e01b03169350620004a884868860201c565b9250600082118015620004d55750620004c0620005c0565b65ffffffffffff16816000015163ffffffff16145b156200051e57620004e683620005d2565b60008881526020902083016000190180546001600160e01b03929092166401000000000263ffffffff909216919091179055620005a4565b8660405180604001604052806200054c6200053e620005c060201b60201c565b65ffffffffffff1662000641565b63ffffffff1681526020016200056286620005d2565b6001600160e01b0390811690915282546001810184556000938452602093849020835194909301519091166401000000000263ffffffff909316929092179101555b5050935093915050565b505050565b620005ae838383620006a8565b6000620005cd43620006dc565b905090565b60006001600160e01b038211156200063d5760405162461bcd60e51b815260206004820152602760248201527f53616665436173743a2076616c756520646f65736e27742066697420696e20326044820152663234206269747360c81b60648201526084016200019a565b5090565b600063ffffffff8211156200063d5760405162461bcd60e51b815260206004820152602660248201527f53616665436173743a2076616c756520646f65736e27742066697420696e203360448201526532206269747360d01b60648201526084016200019a565b6001600160a01b03838116600090815260096020526040808220548584168352912054620005ae9291821691168362000745565b600065ffffffffffff8211156200063d5760405162461bcd60e51b815260206004820152602660248201527f53616665436173743a2076616c756520646f65736e27742066697420696e203460448201526538206269747360d01b60648201526084016200019a565b816001600160a01b0316836001600160a01b031614158015620007685750600081115b15620005ae576001600160a01b03831615620007f5576001600160a01b0383166000908152600a6020908152604082208291620007b2919062000880901b62001d75178562000426565b91509150846001600160a01b03166000805160206200427f8339815191528383604051620007ea929190918252602082015260400190565b60405180910390a250505b6001600160a01b03821615620005ae576001600160a01b0382166000908152600a602090815260408220829162000839919062000411901b62001d69178562000426565b91509150836001600160a01b03166000805160206200427f833981519152838360405162000871929190918252602082015260400190565b60405180910390a25050505050565b60006200041f828462000bae565b634e487b7160e01b600052604160045260246000fd5b60005b83811015620008c1578181015183820152602001620008a7565b50506000910152565b600082601f830112620008dc57600080fd5b81516001600160401b0380821115620008f957620008f96200088e565b604051601f8301601f19908116603f011681019082821181831017156200092457620009246200088e565b816040528381528660208588010111156200093e57600080fd5b62000951846020830160208901620008a4565b9695505050505050565b6000806000606084860312156200097157600080fd5b83516001600160401b03808211156200098957600080fd5b6200099787838801620008ca565b94506020860151915080821115620009ae57600080fd5b50620009bd86828701620008ca565b925050604084015190509250925092565b600181811c90821680620009e357607f821691505b60208210810362000a0457634e487b7160e01b600052602260045260246000fd5b50919050565b601f821115620005ae57600081815260208120601f850160051c8101602086101562000a335750805b601f850160051c820191505b8181101562000a545782815560010162000a3f565b505050505050565b81516001600160401b0381111562000a785762000a786200088e565b62000a908162000a898454620009ce565b8462000a0a565b602080601f83116001811462000ac8576000841562000aaf5750858301515b600019600386901b1c1916600185901b17855562000a54565b600085815260208120601f198616915b8281101562000af95788860151825594840194600190910190840162000ad8565b508582101562000b185787850151600019600388901b60f8161c191681555b5050505050600190811b01905550565b602081526000825180602084015262000b49816040850160208701620008a4565b601f01601f19169190910160400192915050565b8051602080830151919081101562000a045760001960209190910360031b1b16919050565b634e487b7160e01b600052601160045260246000fd5b80820180821115620001eb57620001eb62000b82565b81810381811115620001eb57620001eb62000b82565b60805160a05160c05160e05161010051610120516101405161366062000c1f60003960006112480152600061121d015260006121a30152600061217b015260006120d6015260006121000152600061212a01526136606000f3fe608060405234801561001057600080fd5b50600436106103275760003560e01c80637ecebe00116101b8578063b6a216ae11610104578063dd62ed3e116100a2578063e9f5b3c41161007c578063e9f5b3c414610774578063f1127ed81461077c578063f2fde38b146107b9578063fa52c7d8146107cc57600080fd5b8063dd62ed3e14610745578063de6a3cdd14610758578063e12ed13c1461076b57600080fd5b8063c3cda520116100de578063c3cda520146106e5578063c64814dd146106f8578063cb1c2b5c14610723578063d505accf1461073257600080fd5b8063b6a216ae146106b7578063bcc6587f146106ca578063c2ad5b74146106d257600080fd5b806391ddadf4116101715780639de702581161014b5780639de702581461066d578063a3c3cda014610682578063a457c2d714610691578063a9059cbb146106a457600080fd5b806391ddadf41461063357806395d89b41146106525780639ab24eb01461065a57600080fd5b80637ecebe00146105d0578063817b1cd2146105e35780638456cb59146105ec57806384b0196e146105f45780638da5cb5b1461060f5780638e539e8c1461062057600080fd5b80633a46b1a8116102775780635c19a95c116102305780636fcfff451161020a5780636fcfff451461056457806370a082311461058c578063715018a6146105b55780637547c7a3146105bd57600080fd5b80635c19a95c1461052c5780635c975abb1461053f578063608e4dd01461055157600080fd5b80633a46b1a8146104b75780633f4ba83a146104ca57806340c10f19146104d2578063473691a4146104e55780634bf5d7e9146104f8578063587cde1e1461050057600080fd5b80631904bb2e116102e457806332cb6b0c116102be57806332cb6b0c146104835780633644e51514610494578063372500ab1461049c57806339509351146104a457600080fd5b80631904bb2e146103fc57806323b872dd14610461578063313ce5671461047457600080fd5b806301a5d67e1461032c57806306fdde0314610341578063095ea7b31461035f57806314f64c781461038257806315049a5a146103ad57806318160ddd146103f4575b600080fd5b61033f61033a366004613186565b610856565b005b6103496109c0565b60405161035691906131f6565b60405180910390f35b61037261036d366004613186565b610a52565b6040519015158152602001610356565b610395610390366004613209565b610a6c565b6040516001600160a01b039091168152602001610356565b6103e66103bb366004613222565b6001600160a01b039182166000908152600e6020908152604080832093909416825291909152205490565b604051908152602001610356565b6002546103e6565b61040f61040a366004613255565b610a96565b604051610356919081516001600160a01b0316815260208083015190820152604080830151908201526060808301511515908201526080808301519082015260a0918201519181019190915260c00190565b61037261046f366004613270565b610b44565b60405160128152602001610356565b6103e669d3c21bcecceda100000081565b6103e6610b68565b61033f610b77565b6103726104b2366004613186565b610d11565b6103e66104c5366004613186565b610d33565b61033f610db8565b61033f6104e0366004613186565b610dca565b6103e66104f3366004613255565b610e47565b610349610e74565b61039561050e366004613255565b6001600160a01b039081166000908152600960205260409020541690565b61033f61053a366004613255565b610f0c565b600c54600160a01b900460ff16610372565b61033f61055f366004613209565b610f19565b610577610572366004613255565b61107e565b60405163ffffffff9091168152602001610356565b6103e661059a366004613255565b6001600160a01b031660009081526020819052604090205490565b61033f6110a0565b61033f6105cb366004613209565b6110b2565b6103e66105de366004613255565b6111e1565b6103e660115481565b61033f6111ff565b6105fc61120f565b60405161035697969594939291906132ac565b600c546001600160a01b0316610395565b6103e661062e366004613209565b611298565b61063b6112ff565b60405165ffffffffffff9091168152602001610356565b61034961130a565b6103e6610668366004613255565b611319565b61067561139b565b6040516103569190613342565b6103e6670de0b6b3a764000081565b61037261069f366004613186565b6113fc565b6103726106b2366004613186565b611477565b6106756106c5366004613255565b611485565b61033f6114fb565b61033f6106e0366004613186565b611747565b61033f6106f33660046133a0565b611953565b6103e6610706366004613222565b600e60209081526000928352604080842090915290825290205481565b6103e6678ac7230489e8000081565b61033f6107403660046133f8565b611a89565b6103e6610753366004613222565b611bed565b610395610766366004613186565b611c18565b6103e660125481565b61033f611c50565b61078f61078a366004613462565b611c6f565b60408051825163ffffffff1681526020928301516001600160e01b03169281019290925201610356565b61033f6107c7366004613255565b611cf3565b61081d6107da366004613255565b600d602052600090815260409020805460018201546002830154600384015460048501546005909501546001600160a01b03909416949293919260ff9091169186565b604080516001600160a01b03909716875260208701959095529385019290925215156060840152608083015260a082015260c001610356565b336000908152600e602090815260408083206001600160a01b03861684529091529020548111156108ce5760405162461bcd60e51b815260206004820152601760248201527f496e73756666696369656e742064656c65676174696f6e00000000000000000060448201526064015b60405180910390fd5b600081116108ee5760405162461bcd60e51b81526004016108c5906134a2565b336000908152600e602090815260408083206001600160a01b0386168452909152812080548392906109219084906134ef565b90915550506001600160a01b0382166000908152600d6020526040812060020180548392906109519084906134ef565b92505081905550806011600082825461096a91906134ef565b9091555061097b9050303383611d81565b6040518181526001600160a01b0383169033907faa0001b0e2e76b9a1b925257fefa58b756aebc52d2d7c8a85ea5beacc77a2100906020015b60405180910390a35050565b6060600380546109cf90613502565b80601f01602080910402602001604051908101604052809291908181526020018280546109fb90613502565b8015610a485780601f10610a1d57610100808354040283529160200191610a48565b820191906000526020600020905b815481529060010190602001808311610a2b57829003601f168201915b5050505050905090565b600033610a60818585611f31565b60019150505b92915050565b60108181548110610a7c57600080fd5b6000918252602090912001546001600160a01b0316905081565b610ada6040518060c0016040528060006001600160a01b03168152602001600081526020016000815260200160001515815260200160008152602001600081525090565b506001600160a01b039081166000908152600d6020908152604091829020825160c08101845281549094168452600181015491840191909152600281015491830191909152600381015460ff1615156060830152600481015460808301526005015460a082015290565b600033610b52858285612055565b610b5d858585611d81565b506001949350505050565b6000610b726120c9565b905090565b336000908152600d602052604090206003015460ff16610ba95760405162461bcd60e51b81526004016108c590613536565b336000908152600d6020526040812060050154601254610bc991906134ef565b90506000610bdf670de0b6b3a76400008361356d565b905060008111610c275760405162461bcd60e51b81526020600482015260136024820152724e6f207265776172647320746f20636c61696d60681b60448201526064016108c5565b69d3c21bcecceda100000081610c3c60025490565b610c469190613584565b1115610c8e5760405162461bcd60e51b8152602060048201526017602482015276576f756c6420657863656564206d617820737570706c7960481b60448201526064016108c5565b336000908152600d602052604081206004018054839290610cb0908490613584565b9091555050601254336000818152600d6020526040902060050191909155610cd890826121f4565b60405181815233907ffc30cddea38e2bf4d6ea7d3f9ed3b6ad7f176419f4963bd81318067a4aee73fe9060200160405180910390a25050565b600033610a60818585610d248383611bed565b610d2e9190613584565b611f31565b6000610d3d6112ff565b65ffffffffffff168210610d8f5760405162461bcd60e51b815260206004820152601960248201527804552433230566f7465733a20667574757265206c6f6f6b757603c1b60448201526064016108c5565b6001600160a01b0383166000908152600a60205260409020610db190836121fe565b9392505050565b610dc06122e7565b610dc8612341565b565b610dd26122e7565b69d3c21bcecceda100000081610de760025490565b610df19190613584565b1115610e395760405162461bcd60e51b8152602060048201526017602482015276576f756c6420657863656564206d617820737570706c7960481b60448201526064016108c5565b610e4382826121f4565b5050565b6001600160a01b0381166000908152600d602052604081206002810154600190910154610a669190613584565b606043610e7f6112ff565b65ffffffffffff1614610ed45760405162461bcd60e51b815260206004820152601d60248201527f4552433230566f7465733a2062726f6b656e20636c6f636b206d6f646500000060448201526064016108c5565b5060408051808201909152601d81527f6d6f64653d626c6f636b6e756d6265722666726f6d3d64656661756c74000000602082015290565b610f163382612396565b50565b336000908152600d602052604090206003015460ff16610f4b5760405162461bcd60e51b81526004016108c590613536565b60008111610f6b5760405162461bcd60e51b81526004016108c5906134a2565b336000908152600d6020526040902060010154811115610fcd5760405162461bcd60e51b815260206004820152601a60248201527f496e73756666696369656e74207374616b656420616d6f756e7400000000000060448201526064016108c5565b336000908152600d602052604081206001018054839290610fef9084906134ef565b92505081905550806011600082825461100891906134ef565b9091555050336000908152600d6020526040902060010154678ac7230489e800001115611038576110383361240f565b611043303383611d81565b604051818152339081907f8521c90eb6ba01417c51d5ae70963b0808ed026b015c5d11216c74e7e68df3a8906020015b60405180910390a350565b6001600160a01b0381166000908152600a6020526040812054610a6690612570565b6110a86122e7565b610dc860006125d9565b336000908152600d602052604090206003015460ff166110e45760405162461bcd60e51b81526004016108c590613536565b6110ec61262b565b6000811161110c5760405162461bcd60e51b81526004016108c5906134a2565b336000908152602081905260409020548111156111625760405162461bcd60e51b8152602060048201526014602482015273496e73756666696369656e742062616c616e636560601b60448201526064016108c5565b61116d333083611d81565b336000908152600d60205260408120600101805483929061118f908490613584565b9250508190555080601160008282546111a89190613584565b9091555050604051818152339081907f70e256e9264f1aa014ac7f20b4a16618647d26695e23c7181ee67a22c37e752190602001611073565b6001600160a01b038116600090815260076020526040812054610a66565b6112076122e7565b610dc8612678565b6000606080828080836112437f000000000000000000000000000000000000000000000000000000000000000060056126bb565b61126e7f000000000000000000000000000000000000000000000000000000000000000060066126bb565b60408051600080825260208201909252600f60f81b9b939a50919850469750309650945092509050565b60006112a26112ff565b65ffffffffffff1682106112f45760405162461bcd60e51b815260206004820152601960248201527804552433230566f7465733a20667574757265206c6f6f6b757603c1b60448201526064016108c5565b610a66600b836121fe565b6000610b7243612766565b6060600480546109cf90613502565b6001600160a01b0381166000908152600a60205260408120548015611388576001600160a01b0383166000908152600a602052604090208054600019830190811061136657611366613597565b60009182526020909120015464010000000090046001600160e01b031661138b565b60005b6001600160e01b03169392505050565b60606010805480602002602001604051908101604052809291908181526020018280548015610a4857602002820191906000526020600020905b81546001600160a01b031681526001909101906020018083116113d5575050505050905090565b6000338161140a8286611bed565b90508381101561146a5760405162461bcd60e51b815260206004820152602560248201527f45524332303a2064656372656173656420616c6c6f77616e63652062656c6f77604482015264207a65726f60d81b60648201526084016108c5565b610b5d8286868403611f31565b600033610a60818585611d81565b6001600160a01b0381166000908152600f60209081526040918290208054835181840281018401909452808452606093928301828280156114ef57602002820191906000526020600020905b81546001600160a01b031681526001909101906020018083116114d1575b50505050509050919050565b61150361262b565b33600090815260208190526040902054678ac7230489e80000111561156a5760405162461bcd60e51b815260206004820181905260248201527f496e73756666696369656e742062616c616e636520666f72207374616b696e6760448201526064016108c5565b336000908152600d602052604090206003015460ff16156115c35760405162461bcd60e51b815260206004820152601360248201527220b63932b0b23c9030903b30b634b230ba37b960691b60448201526064016108c5565b6115d63330678ac7230489e80000611d81565b6040805160c08101825233808252678ac7230489e80000602080840182815260008587018181526001606088018181526080890184815260125460a08b01908152898652600d909752998420985189546001600160a01b03919091166001600160a01b0319918216178a5594518983015591516002890155905160038801805491151560ff1990921691909117905596516004870155915160059095019490945560108054958601815581527f1b6847dc741a1b0cd08d278845f9d819d87b734759afb55fe2de5cb82a9ae672909401805490931690911790915560118054919290916116c4908490613584565b9091555050604051678ac7230489e80000815233907fb4a7f5c563a0e35593d156394ed681bdc9c39467d7d722749d23862c2e4b712c9060200160405180910390a2604051678ac7230489e800008152339081907f70e256e9264f1aa014ac7f20b4a16618647d26695e23c7181ee67a22c37e75219060200160405180910390a3565b61174f61262b565b6001600160a01b0382166000908152600d602052604090206003015460ff166117b15760405162461bcd60e51b815260206004820152601460248201527356616c696461746f72206e6f742061637469766560601b60448201526064016108c5565b600081116117d15760405162461bcd60e51b81526004016108c5906134a2565b336000908152602081905260409020548111156118275760405162461bcd60e51b8152602060048201526014602482015273496e73756666696369656e742062616c616e636560601b60448201526064016108c5565b611832333083611d81565b336000908152600e602090815260408083206001600160a01b0386168452909152812054900361189557336000908152600f602090815260408220805460018101825590835291200180546001600160a01b0319166001600160a01b0384161790555b336000908152600e602090815260408083206001600160a01b0386168452909152812080548392906118c8908490613584565b90915550506001600160a01b0382166000908152600d6020526040812060020180548392906118f8908490613584565b9250508190555080601160008282546119119190613584565b90915550506040518181526001600160a01b0383169033907fbfc9b3d52901548f000371ce04bf93bd9fb749c8e2caf6ed8d7adada45640c38906020016109b4565b834211156119a35760405162461bcd60e51b815260206004820152601d60248201527f4552433230566f7465733a207369676e6174757265206578706972656400000060448201526064016108c5565b604080517fe48329057bfd03d55e49b547132e39cffd9c1820ad7b9d4c5307691425d15adf60208201526001600160a01b038816918101919091526060810186905260808101859052600090611a1d90611a159060a001604051602081830303815290604052805190602001206127cd565b8585856127fa565b9050611a2881612822565b8614611a765760405162461bcd60e51b815260206004820152601960248201527f4552433230566f7465733a20696e76616c6964206e6f6e63650000000000000060448201526064016108c5565b611a808188612396565b50505050505050565b83421115611ad95760405162461bcd60e51b815260206004820152601d60248201527f45524332305065726d69743a206578706972656420646561646c696e6500000060448201526064016108c5565b60007f6e71edae12b1b97f4d1f60370fef10105fa2faae0126114a169c64845d6126c9888888611b088c612822565b6040805160208101969096526001600160a01b0394851690860152929091166060840152608083015260a082015260c0810186905260e0016040516020818303038152906040528051906020012090506000611b63826127cd565b90506000611b73828787876127fa565b9050896001600160a01b0316816001600160a01b031614611bd65760405162461bcd60e51b815260206004820152601e60248201527f45524332305065726d69743a20696e76616c6964207369676e6174757265000060448201526064016108c5565b611be18a8a8a611f31565b50505050505050505050565b6001600160a01b03918216600090815260016020908152604080832093909416825291909152205490565b600f6020528160005260406000208181548110611c3457600080fd5b6000918252602090912001546001600160a01b03169150829050565b611c586122e7565b60128054906000611c68836135ad565b9190505550565b60408051808201909152600080825260208201526001600160a01b0383166000908152600a60205260409020805463ffffffff8416908110611cb357611cb3613597565b60009182526020918290206040805180820190915291015463ffffffff8116825264010000000090046001600160e01b0316918101919091529392505050565b611cfb6122e7565b6001600160a01b038116611d605760405162461bcd60e51b815260206004820152602660248201527f4f776e61626c653a206e6577206f776e657220697320746865207a65726f206160448201526564647265737360d01b60648201526084016108c5565b610f16816125d9565b6000610db18284613584565b6000610db182846134ef565b6001600160a01b038316611de55760405162461bcd60e51b815260206004820152602560248201527f45524332303a207472616e736665722066726f6d20746865207a65726f206164604482015264647265737360d81b60648201526084016108c5565b6001600160a01b038216611e475760405162461bcd60e51b815260206004820152602360248201527f45524332303a207472616e7366657220746f20746865207a65726f206164647260448201526265737360e81b60648201526084016108c5565b6001600160a01b03831660009081526020819052604090205481811015611ebf5760405162461bcd60e51b815260206004820152602660248201527f45524332303a207472616e7366657220616d6f756e7420657863656564732062604482015265616c616e636560d01b60648201526084016108c5565b6001600160a01b03848116600081815260208181526040808320878703905593871680835291849020805487019055925185815290927fddf252ad1be2c89b69c2b068fc378daa952ba7f163c4a11628f55a4df523b3ef910160405180910390a3611f2b84848461284f565b50505050565b6001600160a01b038316611f935760405162461bcd60e51b8152602060048201526024808201527f45524332303a20617070726f76652066726f6d20746865207a65726f206164646044820152637265737360e01b60648201526084016108c5565b6001600160a01b038216611ff45760405162461bcd60e51b815260206004820152602260248201527f45524332303a20617070726f766520746f20746865207a65726f206164647265604482015261737360f01b60648201526084016108c5565b6001600160a01b0383811660008181526001602090815260408083209487168084529482529182902085905590518481527f8c5be1e5ebec7d5bd14f71427d1e84f3dd0314c0f7b2291e5b200ac8c7c3b925910160405180910390a3505050565b60006120618484611bed565b90506000198114611f2b57818110156120bc5760405162461bcd60e51b815260206004820152601d60248201527f45524332303a20696e73756666696369656e7420616c6c6f77616e636500000060448201526064016108c5565b611f2b8484848403611f31565b6000306001600160a01b037f00000000000000000000000000000000000000000000000000000000000000001614801561212257507f000000000000000000000000000000000000000000000000000000000000000046145b1561214c57507f000000000000000000000000000000000000000000000000000000000000000090565b610b72604080517f8b73c3c69bb8fe3d512ecc4cf759cc79239f7b179b0ffacaa9a75d522b39400f60208201527f0000000000000000000000000000000000000000000000000000000000000000918101919091527f000000000000000000000000000000000000000000000000000000000000000060608201524660808201523060a082015260009060c00160405160208183030381529060405280519060200120905090565b610e43828261285a565b815460009081816005811115612258576000612219846128e4565b61222390856134ef565b600088815260209020909150869082015463ffffffff16111561224857809150612256565b612253816001613584565b92505b505b808210156122a557600061226c83836129cc565b600088815260209020909150869082015463ffffffff1611156122915780915061229f565b61229c816001613584565b92505b50612258565b80156122d1576000868152602090208101600019015464010000000090046001600160e01b03166122d4565b60005b6001600160e01b03169695505050505050565b600c546001600160a01b03163314610dc85760405162461bcd60e51b815260206004820181905260248201527f4f776e61626c653a2063616c6c6572206973206e6f7420746865206f776e657260448201526064016108c5565b6123496129e7565b600c805460ff60a01b191690557f5db9ee0a495bf2e6ff9c91a7834c1ba4fdd244a5e8aa4e537bd38aeae4b073aa335b6040516001600160a01b03909116815260200160405180910390a1565b6001600160a01b038281166000818152600960208181526040808420805485845282862054949093528787166001600160a01b03198416811790915590519190951694919391928592917f3134e8a2e6d97e929a7e54011ea5485d7d196dd5f0ba4d4ef95803e8e3fc257f9190a4611f2b828483612a37565b6001600160a01b0381166000908152600d60205260408120600301805460ff191690555b60105481101561253857816001600160a01b03166010828154811061245a5761245a613597565b6000918252602090912001546001600160a01b0316036125265760108054612484906001906134ef565b8154811061249457612494613597565b600091825260209091200154601080546001600160a01b0390921691839081106124c0576124c0613597565b9060005260206000200160006101000a8154816001600160a01b0302191690836001600160a01b0316021790555060108054806124ff576124ff6135c6565b600082815260209020810160001990810180546001600160a01b0319169055019055612538565b80612530816135ad565b915050612433565b506040516001600160a01b038216907f23d934bfe7f1275bc6fd70432159c9cc1c0075d069f89da6a40f43bfe7a94ed390600090a250565b600063ffffffff8211156125d55760405162461bcd60e51b815260206004820152602660248201527f53616665436173743a2076616c756520646f65736e27742066697420696e203360448201526532206269747360d01b60648201526084016108c5565b5090565b600c80546001600160a01b038381166001600160a01b0319831681179093556040519116919082907f8be0079c531659141344cd1fd0a4f28419497f9722a3daafe3b4186f6b6457e090600090a35050565b600c54600160a01b900460ff1615610dc85760405162461bcd60e51b815260206004820152601060248201526f14185d5cd8589b194e881c185d5cd95960821b60448201526064016108c5565b61268061262b565b600c805460ff60a01b1916600160a01b1790557f62e78cea01bee320cd4e420270b5ea74000d11b0c9f74754ebdbfc544b05a2586123793390565b606060ff83146126d5576126ce83612b74565b9050610a66565b8180546126e190613502565b80601f016020809104026020016040519081016040528092919081815260200182805461270d90613502565b801561275a5780601f1061272f5761010080835404028352916020019161275a565b820191906000526020600020905b81548152906001019060200180831161273d57829003601f168201915b50505050509050610a66565b600065ffffffffffff8211156125d55760405162461bcd60e51b815260206004820152602660248201527f53616665436173743a2076616c756520646f65736e27742066697420696e203460448201526538206269747360d01b60648201526084016108c5565b6000610a666127da6120c9565b8360405161190160f01b8152600281019290925260228201526042902090565b600080600061280b87878787612bb3565b9150915061281881612c77565b5095945050505050565b6001600160a01b03811660009081526007602052604090208054600181018255905b50919050565b505050565b61284a838383612dc1565b6128648282612df3565b6002546001600160e01b0310156128d65760405162461bcd60e51b815260206004820152603060248201527f4552433230566f7465733a20746f74616c20737570706c79207269736b73206f60448201526f766572666c6f77696e6720766f74657360801b60648201526084016108c5565b611f2b600b611d6983612eba565b6000816000036128f657506000919050565b600060016129038461302f565b901c6001901b9050600181848161291c5761291c6135dc565b048201901c90506001818481612934576129346135dc565b048201901c9050600181848161294c5761294c6135dc565b048201901c90506001818481612964576129646135dc565b048201901c9050600181848161297c5761297c6135dc565b048201901c90506001818481612994576129946135dc565b048201901c905060018184816129ac576129ac6135dc565b048201901c9050610db1818285816129c6576129c66135dc565b046130c3565b60006129db60028484186135f2565b610db190848416613584565b600c54600160a01b900460ff16610dc85760405162461bcd60e51b815260206004820152601460248201527314185d5cd8589b194e881b9bdd081c185d5cd95960621b60448201526064016108c5565b816001600160a01b0316836001600160a01b031614158015612a595750600081115b1561284a576001600160a01b03831615612ae7576001600160a01b0383166000908152600a602052604081208190612a9490611d7585612eba565b91509150846001600160a01b03167fdec2bacdd2f05b59de34da9b523dff8be42e5e38e818c82fdb0bae774387a7248383604051612adc929190918252602082015260400190565b60405180910390a250505b6001600160a01b0382161561284a576001600160a01b0382166000908152600a602052604081208190612b1d90611d6985612eba565b91509150836001600160a01b03167fdec2bacdd2f05b59de34da9b523dff8be42e5e38e818c82fdb0bae774387a7248383604051612b65929190918252602082015260400190565b60405180910390a25050505050565b60606000612b81836130d9565b604080516020808252818301909252919250600091906020820181803683375050509182525060208101929092525090565b6000807f7fffffffffffffffffffffffffffffff5d576e7357a4501ddfe92f46681b20a0831115612bea5750600090506003612c6e565b6040805160008082526020820180845289905260ff881692820192909252606081018690526080810185905260019060a0016020604051602081039080840390855afa158015612c3e573d6000803e3d6000fd5b5050604051601f1901519150506001600160a01b038116612c6757600060019250925050612c6e565b9150600090505b94509492505050565b6000816004811115612c8b57612c8b613614565b03612c935750565b6001816004811115612ca757612ca7613614565b03612cf45760405162461bcd60e51b815260206004820152601860248201527f45434453413a20696e76616c6964207369676e6174757265000000000000000060448201526064016108c5565b6002816004811115612d0857612d08613614565b03612d555760405162461bcd60e51b815260206004820152601f60248201527f45434453413a20696e76616c6964207369676e6174757265206c656e6774680060448201526064016108c5565b6003816004811115612d6957612d69613614565b03610f165760405162461bcd60e51b815260206004820152602260248201527f45434453413a20696e76616c6964207369676e6174757265202773272076616c604482015261756560f01b60648201526084016108c5565b6001600160a01b0383811660009081526009602052604080822054858416835291205461284a92918216911683612a37565b6001600160a01b038216612e495760405162461bcd60e51b815260206004820152601f60248201527f45524332303a206d696e7420746f20746865207a65726f20616464726573730060448201526064016108c5565b8060026000828254612e5b9190613584565b90915550506001600160a01b038216600081815260208181526040808320805486019055518481527fddf252ad1be2c89b69c2b068fc378daa952ba7f163c4a11628f55a4df523b3ef910160405180910390a3610e436000838361284f565b82546000908190818115612f075760008781526020902082016000190160408051808201909152905463ffffffff8116825264010000000090046001600160e01b03166020820152612f1c565b60408051808201909152600080825260208201525b905080602001516001600160e01b03169350612f3c84868863ffffffff16565b9250600082118015612f665750612f516112ff565b65ffffffffffff16816000015163ffffffff16145b15612fab57612f7483613101565b60008881526020902083016000190180546001600160e01b03929092166401000000000263ffffffff909216919091179055613025565b866040518060400160405280612fcf612fc26112ff565b65ffffffffffff16612570565b63ffffffff168152602001612fe386613101565b6001600160e01b0390811690915282546001810184556000938452602093849020835194909301519091166401000000000263ffffffff909316929092179101555b5050935093915050565b600080608083901c1561304457608092831c92015b604083901c1561305657604092831c92015b602083901c1561306857602092831c92015b601083901c1561307a57601092831c92015b600883901c1561308c57600892831c92015b600483901c1561309e57600492831c92015b600283901c156130b057600292831c92015b600183901c15610a665760010192915050565b60008183106130d25781610db1565b5090919050565b600060ff8216601f811115610a6657604051632cd44ac360e21b815260040160405180910390fd5b60006001600160e01b038211156125d55760405162461bcd60e51b815260206004820152602760248201527f53616665436173743a2076616c756520646f65736e27742066697420696e20326044820152663234206269747360c81b60648201526084016108c5565b80356001600160a01b038116811461318157600080fd5b919050565b6000806040838503121561319957600080fd5b6131a28361316a565b946020939093013593505050565b6000815180845260005b818110156131d6576020818501810151868301820152016131ba565b506000602082860101526020601f19601f83011685010191505092915050565b602081526000610db160208301846131b0565b60006020828403121561321b57600080fd5b5035919050565b6000806040838503121561323557600080fd5b61323e8361316a565b915061324c6020840161316a565b90509250929050565b60006020828403121561326757600080fd5b610db18261316a565b60008060006060848603121561328557600080fd5b61328e8461316a565b925061329c6020850161316a565b9150604084013590509250925092565b60ff60f81b881681526000602060e0818401526132cc60e084018a6131b0565b83810360408501526132de818a6131b0565b606085018990526001600160a01b038816608086015260a0850187905284810360c0860152855180825283870192509083019060005b8181101561333057835183529284019291840191600101613314565b50909c9b505050505050505050505050565b6020808252825182820181905260009190848201906040850190845b818110156133835783516001600160a01b03168352928401929184019160010161335e565b50909695505050505050565b803560ff8116811461318157600080fd5b60008060008060008060c087890312156133b957600080fd5b6133c28761316a565b955060208701359450604087013593506133de6060880161338f565b92506080870135915060a087013590509295509295509295565b600080600080600080600060e0888a03121561341357600080fd5b61341c8861316a565b965061342a6020890161316a565b955060408801359450606088013593506134466080890161338f565b925060a0880135915060c0880135905092959891949750929550565b6000806040838503121561347557600080fd5b61347e8361316a565b9150602083013563ffffffff8116811461349757600080fd5b809150509250929050565b6020808252601d908201527f416d6f756e74206d7573742062652067726561746572207468616e2030000000604082015260600190565b634e487b7160e01b600052601160045260246000fd5b81810381811115610a6657610a666134d9565b600181811c9082168061351657607f821691505b60208210810361284457634e487b7160e01b600052602260045260246000fd5b60208082526017908201527f4e6f7420616e206163746976652076616c696461746f72000000000000000000604082015260600190565b8082028115828204841417610a6657610a666134d9565b80820180821115610a6657610a666134d9565b634e487b7160e01b600052603260045260246000fd5b6000600182016135bf576135bf6134d9565b5060010190565b634e487b7160e01b600052603160045260246000fd5b634e487b7160e01b600052601260045260246000fd5b60008261360f57634e487b7160e01b600052601260045260246000fd5b500490565b634e487b7160e01b600052602160045260246000fdfea264697066735822122041e02099c07b2f34e92bc2f17ef60062c7c8ed630fea029c6fb5c86b7513532664736f6c63430008130033dec2bacdd2f05b59de34da9b523dff8be42e5e38e818c82fdb0bae774387a724",
  "linkReferences": {},
  "deployedLinkReferences": {}
}