{
  "_format": "hh-sol-artifact-1",
  "contractName": "NationalTally",
  "sourceName": "contracts_src/national/NationalTally.sol",
  "abi": [
    {
      "inputs": [
        {
          "internalType": "uint256",
          "name": "_expectedDivisions",
          "type": "uint256"
        }
      ],
      "stateMutability": "nonpayable",
      "type": "constructor"
    },
    {
      "anonymous": false,
      "inputs": [
        {
          "indexed": true,
          "internalType": "uint256",
          "name": "recordId",
          "type": "uint256"
        },
        {
          "indexed": false,
          "internalType": "address",
          "name": "auditor",
          "type": "address"
        },
        {
          "indexed": false,
          "internalType": "string",
          "name": "action",
          "type": "string"
        }
      ],
      "name": "AuditRecordAdded",
      "type": "event"
    },
    {
      "anonymous": false,
      "inputs": [
        {
          "indexed": true,
          "internalType": "uint256",
          "name": "candidateId",
          "type": "uint256"
        },
        {
          "indexed": false,
          "internalType": "string",
          "name": "name",
          "type": "string"
        },
        {
          "indexed": false,
          "internalType": "string",
          "name": "party",
          "type": "string"
        }
      ],
      "name": "CandidateAdded",
      "type": "event"
    },
    {
      "anonymous": false,
      "inputs": [
        {
          "indexed": true,
          "internalType": "uint256",
          "name": "divisionId",
          "type": "uint256"
        },
        {
          "indexed": false,
          "internalType": "bytes32",
          "name": "aggregatedRoot",
          "type": "bytes32"
        },
        {
          "indexed": false,
          "internalType": "uint256",
          "name": "totalVotes",
          "type": "uint256"
        },
        {
          "indexed": false,
          "internalType": "address",
          "name": "submitter",
          "type": "address"
        }
      ],
      "name": "DivisionResultSubmitted",
      "type": "event"
    },
    {
      "anonymous": false,
      "inputs": [
        {
          "indexed": false,
          "internalType": "uint256",
          "name": "timestamp",
          "type": "uint256"
        },
        {
          "indexed": false,
          "internalType": "uint256",
          "name": "totalVotes",
          "type": "uint256"
        }
      ],
      "name": "ElectionFinalized",
      "type": "event"
    },
    {
      "anonymous": false,
      "inputs": [
        {
          "indexed": false,
          "internalType": "uint256",
          "name": "totalVotes",
          "type": "uint256"
        },
        {
          "indexed": false,
          "internalType": "uint256",
          "name": "totalDivisions",
          "type": "uint256"
        },
        {
          "indexed": false,
          "internalType": "address",
          "name": "finalizer",
          "type": "address"
        }
      ],
      "name": "NationalResultFinalized",
      "type": "event"
    },
    {
      "anonymous": false,
      "inputs": [
        {
          "indexed": true,
          "internalType": "address",
          "name": "previousOwner",
          "type": "address"
        },
        {
          "indexed": true,
          "internalType": "address",
          "name": "newOwner",
          "type": "address"
        }
      ],
      "name": "OwnershipTransferred",
      "type": "event"
    },
    {
      "anonymous": false,
      "inputs": [
        {
          "indexed": false,
          "internalType": "address",
          "name": "account",
          "type": "address"
        }
      ],
      "name": "Paused",
      "type": "event"
    },
    {
      "anonymous": false,
      "inputs": [
        {
          "indexed": false,
          "internalType": "address",
          "name": "account",
          "type": "address"
        }
      ],
      "name": "Unpaused",
      "type": "event"
    },
    {
      "anonymous": false,
      "inputs": [
        {
          "indexed": true,
          "internalType": "address",
          "name": "validator",
          "type": "address"
        },
        {
          "indexed": false,
          "internalType": "string",
          "name": "role",
          "type": "string"
        }
      ],
      "name": "ValidatorAuthorized",
      "type": "event"
    },
    {
      "anonymous": false,
      "inputs": [
        {
          "indexed": true,
          "internalType": "address",
          "name": "validator",
          "type": "address"
        },
        {
          "indexed": false,
          "internalType": "string",
          "name": "role",
          "type": "string"
        }
      ],
      "name": "ValidatorRevoked",
      "type": "event"
    },
    {
      "inputs": [
        {
          "internalType": "string",
          "name": "_name",
          "type": "string"
        },
        {
          "internalType": "string",
          "name": "_party",
          "type": "string"
        }
      ],
      "name": "addCandidate",
      "outputs": [],
      "stateMutability": "nonpayable",
      "type": "function"
    },
    {
      "inputs": [
        {
          "internalType": "uint256",
          "name": "",
          "type": "uint256"
        }
      ],
      "name": "auditTrail",
      "outputs": [
        {
          "internalType": "uint256",
          "name": "timestamp",
          "type": "uint256"
        },
        {
          "internalType": "address",
          "name": "auditor",
          "type": "address"
        },
        {
          "internalType": "string",
          "name": "action",
          "type": "string"
        },
        {
          "internalType": "bytes32",
          "name": "dataHash",
          "type": "bytes32"
        },
        {
          "internalType": "bool",
          "name": "verified",
          "type": "bool"
        }
      ],
      "stateMutability": "view",
      "type": "function"
    },
    {
      "inputs": [
        {
          "internalType": "address",
          "name": "_validator",
          "type": "address"
        }
      ],
      "name": "authorizeDivisionValidator",
      "outputs": [],
      "stateMutability": "nonpayable",
      "type": "function"
    },
    {
      "inputs": [
        {
          "internalType": "address",
          "name": "_validator",
          "type": "address"
        }
      ],
      "name": "authorizeNationalValidator",
      "outputs": [],
      "stateMutability": "nonpayable",
      "type": "function"
    },
    {
      "inputs": [
        {
          "internalType": "address",
          "name": "",
          "type": "address"
        }
      ],
      "name": "authorizedDivisionValidators",
      "outputs": [
        {
          "internalType": "bool",
          "name": "",
          "type": "bool"
        }
      ],
      "stateMutability": "view",
      "type": "function"
    },
    {
      "inputs": [],
      "name": "candidateCount",
      "outputs": [
        {
          "internalType": "uint256",
          "name": "",
          "type": "uint256"
        }
      ],
      "stateMutability": "view",
      "type": "function"
    },
    {
      "inputs": [
        {
          "internalType": "uint256",
          "name": "",
          "type": "uint256"
        }
      ],
      "name": "candidates",
      "outputs": [
        {
          "internalType": "uint256",
          "name": "id",
          "type": "uint256"
        },
        {
          "internalType": "string",
          "name": "name",
          "type": "string"
        },
        {
          "internalType": "string",
          "name": "party",
          "type": "string"
        },
        {
          "internalType": "uint256",
          "name": "totalVotes",
          "type": "uint256"
        },
        {
          "internalType": "bool",
          "name": "isActive",
          "type": "bool"
        }
      ],
      "stateMutability": "view",
      "type": "function"
    },
    {
      "inputs": [],
      "name": "divisionCount",
      "outputs": [
        {
          "internalType": "uint256",
          "name": "",
          "type": "uint256"
        }
      ],
      "stateMutability": "view",
      "type": "function"
    },
    {
      "inputs": [
        {
          "internalType": "uint256",
          "name": "",
          "type": "uint256"
        }
      ],
      "name": "divisionResults",
      "outputs": [
        {
          "internalType": "uint256",
          "name": "divisionId",
          "type": "uint256"
        },
        {
          "internalType": "bytes32",
          "name": "aggregatedRoot",
          "type": "bytes32"
        },
        {
          "internalType": "uint256",
          "name": "totalVotes",
          "type": "uint256"
        },
        {
          "internalType": "uint256",
          "name": "timestamp",
          "type": "uint256"
        },
        {
          "internalType": "address",
          "name": "submitter",
          "type": "address"
        },
        {
          "internalType": "bool",
          "name": "verified",
          "type": "bool"
        },
        {
          "internalType": "bool",
          "name": "finalized",
          "type": "bool"
        }
      ],
      "stateMutability": "view",
      "type": "function"
    },
    {
      "inputs": [],
      "name": "electionFinalized",
      "outputs": [
        {
          "internalType": "bool",
          "name": "",
          "type": "bool"
        }
      ],
      "stateMutability": "view",
      "type": "function"
    },
    {
      "inputs": [],
      "name": "expectedDivisions",
      "outputs": [
        {
          "internalType": "uint256",
          "name": "",
          "type": "uint256"
        }
      ],
      "stateMutability": "view",
      "type": "function"
    },
    {
      "inputs": [
        {
          "internalType": "uint256",
          "name": "_divisionId",
          "type": "uint256"
        }
      ],
      "name": "finalizeDivisionResult",
      "outputs": [],
      "stateMutability": "nonpayable",
      "type": "function"
    },
    {
      "inputs": [],
      "name": "finalizeNationalResult",
      "outputs": [],
      "stateMutability": "nonpayable",
      "type": "function"
    },
    {
      "inputs": [],
      "name": "getAllCandidateResults",
      "outputs": [
        {
          "internalType": "uint256[]",
          "name": "ids",
          "type": "uint256[]"
        },
        {
          "internalType": "string[]",
          "name": "names",
          "type": "string[]"
        },
        {
          "internalType": "string[]",
          "name": "parties",
          "type": "string[]"
        },
        {
          "internalType": "uint256[]",
          "name": "votes",
          "type": "uint256[]"
        }
      ],
      "stateMutability": "view",
      "type": "function"
    },
    {
      "inputs": [],
      "name": "getAuditTrail",
      "outputs": [
        {
          "components": [
            {
              "internalType": "uint256",
              "name": "timestamp",
              "type": "uint256"
            },
            {
              "internalType": "address",
              "name": "auditor",
              "type": "address"
            },
            {
              "internalType": "string",
              "name": "action",
              "type": "string"
            },
            {
              "internalType": "bytes32",
              "name": "dataHash",
              "type": "bytes32"
            },
            {
              "internalType": "bool",
              "name": "verified",
              "type": "bool"
            }
          ],
          "internalType": "struct NationalTally.AuditRecord[]",
          "name": "",
          "type": "tuple[]"
        }
      ],
      "stateMutability": "view",
      "type": "function"
    },
    {
      "inputs": [
        {
          "internalType": "uint256",
          "name": "_candidateId",
          "type": "uint256"
        }
      ],
      "name": "getCandidateResults",
      "outputs": [
        {
          "internalType": "string",
          "name": "name",
          "type": "string"
        },
        {
          "internalType": "string",
          "name": "party",
          "type": "string"
        },
        {
          "internalType": "uint256",
          "name": "totalVotes",
          "type": "uint256"
        },
        {
          "internalType": "bool",
          "name": "isActive",
          "type": "bool"
        }
      ],
      "stateMutability": "view",
      "type": "function"
    },
    {
      "inputs": [
        {
          "internalType": "uint256",
          "name": "_divisionId",
          "type": "uint256"
        }
      ],
      "name": "getDivisionResult",
      "outputs": [
        {
          "internalType": "bytes32",
          "name": "aggregatedRoot",
          "type": "bytes32"
        },
        {
          "internalType": "uint256",
          "name": "totalVotes",
          "type": "uint256"
        },
        {
          "internalType": "uint256",
          "name": "timestamp",
          "type": "uint256"
        },
        {
          "internalType": "address",
          "name": "submitter",
          "type": "address"
        },
        {
          "internalType": "bool",
          "name": "verified",
          "type": "bool"
        },
        {
          "internalType": "bool",
          "name": "finalized",
          "type": "bool"
        }
      ],
      "stateMutability": "view",
      "type": "function"
    },
    {
      "inputs": [],
      "name": "getEnergyStats",
      "outputs": [
        {
          "internalType": "uint256",
          "name": "gasUsed",
          "type": "uint256"
        },
        {
          "internalType": "uint256",
          "name": "transactions",
          "type": "uint256"
        },
        {
          "internalType": "uint256",
          "name": "avgGasPerTransaction",
          "type": "uint256"
        }
      ],
      "stateMutability": "view",
      "type": "function"
    },
    {
      "inputs": [],
      "name": "getNationalResults",
      "outputs": [
        {
          "internalType": "uint256",
          "name": "totalVotes",
          "type": "uint256"
        },
        {
          "internalType": "uint256",
          "name": "totalDivisions",
          "type": "uint256"
        },
        {
          "internalType": "uint256",
          "name": "timestamp",
          "type": "uint256"
        },
        {
          "internalType": "bool",
          "name": "finalized",
          "type": "bool"
        }
      ],
      "stateMutability": "view",
      "type": "function"
    },
    {
      "inputs": [],
      "name": "nationalResult",
      "outputs": [
        {
          "internalType": "uint256",
          "name": "totalVotes",
          "type": "uint256"
        },
        {
          "internalType": "uint256",
          "name": "totalDivisions",
          "type": "uint256"
        },
        {
          "internalType": "uint256",
          "name": "timestamp",
          "type": "uint256"
        },
        {
          "internalType": "bool",
          "name": "finalized",
          "type": "bool"
        },
        {
          "internalType": "address",
          "name": "finalizer",
          "type": "address"
        }
      ],
      "stateMutability": "view",
      "type": "function"
    },
    {
      "inputs": [
        {
          "internalType": "address",
          "name": "",
          "type": "address"
        }
      ],
      "name": "nationalValidators",
      "outputs": [
        {
          "internalType": "bool",
          "name": "",
          "type": "bool"
        }
      ],
      "stateMutability": "view",
      "type": "function"
    },
    {
      "inputs": [
        {
          "internalType": "bytes32",
          "name": "",
          "type": "bytes32"
        }
      ],
      "name": "operationSignatureCount",
      "outputs": [
        {
          "internalType": "uint256",
          "name": "",
          "type": "uint256"
        }
      ],
      "stateMutability": "view",
      "type": "function"
    },
    {
      "inputs": [
        {
          "internalType": "bytes32",
          "name": "",
          "type": "bytes32"
        },
        {
          "internalType": "address",
          "name": "",
          "type": "address"
        }
      ],
      "name": "operationSignatures",
      "outputs": [
        {
          "internalType": "bool",
          "name": "",
          "type": "bool"
        }
      ],
      "stateMutability": "view",
      "type": "function"
    },
    {
      "inputs": [],
      "name": "owner",
      "outputs": [
        {
          "internalType": "address",
          "name": "",
          "type": "address"
        }
      ],
      "stateMutability": "view",
      "type": "function"
    },
    {
      "inputs": [],
      "name": "pause",
      "outputs": [],
      "stateMutability": "nonpayable",
      "type": "function"
    },
    {
      "inputs": [],
      "name": "paused",
      "outputs": [
        {
          "internalType": "bool",
          "name": "",
          "type": "bool"
        }
      ],
      "stateMutability": "view",
      "type": "function"
    },
    {
      "inputs": [
        {
          "internalType": "bytes32",
          "name": "",
          "type": "bytes32"
        }
      ],
      "name": "processedRoots",
      "outputs": [
        {
          "internalType": "bool",
          "name": "",
          "type": "bool"
        }
      ],
      "stateMutability": "view",
      "type": "function"
    },
    {
      "inputs": [],
      "name": "renounceOwnership",
      "outputs": [],
      "stateMutability": "nonpayable",
      "type": "function"
    },
    {
      "inputs": [],
      "name": "requiredNationalSignatures",
      "outputs": [
        {
          "internalType": "uint256",
          "name": "",
          "type": "uint256"
        }
      ],
      "stateMutability": "view",
      "type": "function"
    },
    {
      "inputs": [
        {
          "internalType": "uint256",
          "name": "_required",
          "type": "uint256"
        }
      ],
      "name": "setRequiredNationalSignatures",
      "outputs": [],
      "stateMutability": "nonpayable",
      "type": "function"
    },
    {
      "inputs": [
        {
          "internalType": "uint256",
          "name": "_divisionId",
          "type": "uint256"
        },
        {
          "internalType": "bytes32",
          "name": "_aggregatedRoot",
          "type": "bytes32"
        },
        {
          "internalType": "uint256",
          "name": "_totalVotes",
          "type": "uint256"
        },
        {
          "internalType": "uint256[]",
          "name": "_candidateIds",
          "type": "uint256[]"
        },
        {
          "internalType": "uint256[]",
          "name": "_candidateVotes",
          "type": "uint256[]"
        }
      ],
      "name": "submitDivisionResult",
      "outputs": [],
      "stateMutability": "nonpayable",
      "type": "function"
    },
    {
      "inputs": [],
      "name": "totalGasUsed",
      "outputs": [
        {
          "internalType": "uint256",
          "name": "",
          "type": "uint256"
        }
      ],
      "stateMutability": "view",
      "type": "function"
    },
    {
      "inputs": [],
      "name": "totalTransactions",
      "outputs": [
        {
          "internalType": "uint256",
          "name": "",
          "type": "uint256"
        }
      ],
      "stateMutability": "view",
      "type": "function"
    },
    {
      "inputs": [
        {
          "internalType": "address",
          "name": "newOwner",
          "type": "address"
        }
      ],
      "name": "transferOwnership",
      "outputs": [],
      "stateMutability": "nonpayable",
      "type": "function"
    },
    {
      "inputs": [],
      "name": "unpause",
      "outputs": [],
      "stateMutability": "nonpayable",
      "type": "function"
    },
    {
      "inputs": [
        {
          "internalType": "uint256",
          "name": "_divisionId",
          "type": "uint256"
        },
        {
          "internalType": "bytes32[]",
          "name": "_proof",
          "type": "bytes32[]"
        },
        {
          "internalType": "bytes32",
          "name": "_leaf",
          "type": "bytes32"
        }
      ],
      "name": "verifyDivisionResult",
      "outputs": [
        {
          "internalType": "bool",
          "name": "",
          "type": "bool"
        }
      ],
      "stateMutability": "nonpayable",
      "type": "function"
    }
  ],
  "bytecode": "0x608060405260036015553480156200001657600080fd5b5060405162002bc738038062002bc78339810160408190526200003991620000af565b62000044336200005f565b600180556002805460ff1916905560105542600955620000c9565b600080546001600160a01b038381166001600160a01b0319831681178455604051919092169283917f8be0079c531659141344cd1fd0a4f28419497f9722a3daafe3b4186f6b6457e09190a35050565b600060208284031215620000c257600080fd5b5051919050565b612aee80620000d96000396000f3fe608060405234801561001057600080fd5b506004361061021c5760003560e01c80637631a8ba11610125578063b9a60038116100ad578063d8076d661161007c578063d8076d6614610602578063ddaf092914610630578063de2c95bc14610654578063ee45e78214610661578063f2fde38b1461068457600080fd5b8063b9a600381461059d578063be78e4b7146105a6578063c013f991146105be578063c185ea42146105d157600080fd5b80638456cb59116100f45780638456cb59146105555780638da5cb5b1461055d5780639fbefb2614610578578063a287f9d714610581578063a9a981a31461059457600080fd5b80637631a8ba1461051e578063787071db146105315780637e70f64b146105445780637f5386661461054c57600080fd5b806342d692dd116101a85780635c975abb116101775780635c975abb146104bc5780635dce3a3f146104c7578063677b8b92146104d0578063715018a6146104f3578063759ebd66146104fb57600080fd5b806342d692dd1461033557806347229cda146103685780634924f1e81461038b5780634a7ea4011461042a57600080fd5b806326541b56116101ef57806326541b56146102c15780632fcc27a4146102d45780633477ee2e146102e95780633c36d8eb1461030d5780633f4ba83a1461032d57600080fd5b8063165cdfa8146102215780631c64c012146102365780632201a2b314610252578063241d0dae14610265575b600080fd5b61023461022f36600461221a565b610697565b005b61023f60155481565b6040519081526020015b60405180910390f35b610234610260366004612235565b61079d565b600754600854600954600a5461028e9392919060ff81169061010090046001600160a01b031685565b60408051958652602086019490945292840191909152151560608301526001600160a01b0316608082015260a001610249565b6102346102cf366004612305565b6107ff565b6102dc610965565b60405161024991906123b9565b6102fc6102f7366004612235565b610a95565b60405161024995949392919061245b565b61023f61031b366004612235565b60146020526000908152604090205481565b610234610bd8565b61035861034336600461221a565b60126020526000908152604090205460ff1681565b6040519015158152602001610249565b61035861037636600461221a565b60056020526000908152604090205460ff1681565b6103e8610399366004612235565b6003602081905260009182526040909120805460018201546002830154938301546004909301549193909290916001600160a01b0381169060ff600160a01b8204811691600160a81b90041687565b6040805197885260208801969096529486019390935260608501919091526001600160a01b03166080840152151560a0830152151560c082015260e001610249565b610482610438366004612235565b6000908152600360208190526040909120600181015460028201549282015460049092015490936001600160a01b0382169160ff600160a01b8204811692600160a81b9092041690565b604080519687526020870195909552938501929092526001600160a01b0316606084015215156080830152151560a082015260c001610249565b60025460ff16610358565b61023f60105481565b6103586104de366004612235565b60066020526000908152604090205460ff1681565b610234610bea565b610503610bfc565b60408051938452602084019290925290820152606001610249565b61023461052c36600461221a565b610c36565b61023461053f366004612235565b610d1e565b610234610f37565b61023f600e5481565b610234611216565b6000546040516001600160a01b039091168152602001610249565b61023f60165481565b61023461058f36600461252f565b611226565b61023f600f5481565b61023f60175481565b6105ae611648565b6040516102499493929190612640565b6103586105cc366004612698565b6119bf565b600754600854600954600a5460ff166040805194855260208501939093529183015215156060820152608001610249565b61035861061036600461273d565b601360209081526000928352604080842090915290825290205460ff1681565b61064361063e366004612235565b611adf565b604051610249959493929190612769565b6011546103589060ff1681565b61067461066f366004612235565b611b25565b60405161024994939291906127ac565b61023461069236600461221a565b611cba565b61069f611d30565b6001600160a01b03811660008181526012602052604090819020805460ff19166001179055517f71f2c8adfc4d50acbc49525b7c584c97bf55e54bbb61843e029cca6fb657a4e99061070d906020808252600890820152671390551253d3905360c21b604082015260600190565b60405180910390a261079a604051806040016040528060148152602001731590531251105513d497d055551213d49256915160621b8152508260405160200161077f919060609190911b6bffffffffffffffffffffffff19168152671390551253d3905360c21b6014820152601c0190565b60405160208183030381529060405280519060200120611d8a565b50565b6107a5611d30565b600081116107fa5760405162461bcd60e51b815260206004820152601d60248201527f496e76616c6964207369676e617475726520726571756972656d656e7400000060448201526064015b60405180910390fd5b601555565b610807611d30565b60115460ff161561082a5760405162461bcd60e51b81526004016107f1906127ea565b600f805490600061083a83612837565b90915550506040805160a081018252600f54808252602080830186815283850186905260006060850181905260016080860181905293815260049092529390208251815592519192919082019061089190826128d9565b50604082015160028201906108a690826128d9565b50606082015160038201556080909101516004909101805460ff1916911515919091179055600f546000908152600c602052604090206108e683826128d9565b50600f547fe64f834082661dd9ed89427b87edb6270fd6dad17198b0938f0edd058914c87f838360405161091b929190612999565b60405180910390a26109616040518060400160405280600f81526020016e10d05391125110551157d051111151608a1b815250838360405160200161077f9291906129be565b5050565b6060600d805480602002602001604051908101604052809291908181526020016000905b82821015610a8c5760008481526020908190206040805160a081018252600586029092018054835260018101546001600160a01b031693830193909352600283018054929392918401916109dc90612850565b80601f0160208091040260200160405190810160405280929190818152602001828054610a0890612850565b8015610a555780601f10610a2a57610100808354040283529160200191610a55565b820191906000526020600020905b815481529060010190602001808311610a3857829003601f168201915b5050509183525050600382015460208083019190915260049092015460ff1615156040909101529082526001929092019101610989565b50505050905090565b60046020526000908152604090208054600182018054919291610ab790612850565b80601f0160208091040260200160405190810160405280929190818152602001828054610ae390612850565b8015610b305780601f10610b0557610100808354040283529160200191610b30565b820191906000526020600020905b815481529060010190602001808311610b1357829003601f168201915b505050505090806002018054610b4590612850565b80601f0160208091040260200160405190810160405280929190818152602001828054610b7190612850565b8015610bbe5780601f10610b9357610100808354040283529160200191610bbe565b820191906000526020600020905b815481529060010190602001808311610ba157829003601f168201915b50505050600383015460049093015491929160ff16905085565b610be0611d30565b610be8611ed6565b565b610bf2611d30565b610be86000611f28565b600080600080600060175411610c13576000610c23565b601754601654610c2391906129ed565b6016546017549096909550909350915050565b610c3e611d30565b6001600160a01b03811660008181526005602052604090819020805460ff19166001179055517f71f2c8adfc4d50acbc49525b7c584c97bf55e54bbb61843e029cca6fb657a4e990610cac906020808252600890820152672224ab24a9a4a7a760c11b604082015260600190565b60405180910390a261079a604051806040016040528060148152602001731590531251105513d497d055551213d49256915160621b8152508260405160200161077f919060609190911b6bffffffffffffffffffffffff19168152672224ab24a9a4a7a760c11b6014820152601c0190565b3360009081526012602052604090205460ff16610d4d5760405162461bcd60e51b81526004016107f190612a0f565b600081815260036020526040902060040154600160a01b900460ff16610db55760405162461bcd60e51b815260206004820152601c60248201527f4469766973696f6e20726573756c74206e6f742076657269666965640000000060448201526064016107f1565b600081815260036020526040902060040154600160a81b900460ff1615610e1e5760405162461bcd60e51b815260206004820152601a60248201527f4469766973696f6e20616c72656164792066696e616c697a656400000000000060448201526064016107f1565b604051702324a720a624ad22afa224ab24a9a4a7a760791b60208201526031810182905260009060510160408051601f19818403018152918152815160209283012060008181526013845282812033825290935291205490915060ff16610ebf5760008181526013602090815260408083203384528252808320805460ff1916600117905583835260149091528120805491610eb983612837565b91905055505b6015546000828152601460205260409020541061096157600082815260036020908152604091829020600401805460ff60a81b1916600160a81b1790558151808301909252601982527f4449564953494f4e5f524553554c545f46494e414c495a454400000000000000908201526109619082611d8a565b3360009081526012602052604090205460ff16610f665760405162461bcd60e51b81526004016107f190612a0f565b60115460ff1615610f895760405162461bcd60e51b81526004016107f1906127ea565b610f91611f78565b601054600e5414610fe45760405162461bcd60e51b815260206004820152601b60248201527f4e6f7420616c6c206469766973696f6e73207375626d6974746564000000000060448201526064016107f1565b60015b601054811161106357600081815260036020526040902060040154600160a81b900460ff166110515760405162461bcd60e51b8152602060048201526016602482015275111a5d9a5cda5bdb881b9bdd08199a5b985b1a5e995960521b60448201526064016107f1565b8061105b81612837565b915050610fe7565b5060405170119253905312569157d390551253d39053607a1b602082015242603182015260009060510160408051601f19818403018152918152815160209283012060008181526013845282812033825290935291205490915060ff166111045760008181526013602090815260408083203384528252808320805460ff19166001179055838352601490915281208054916110fe83612837565b91905055505b6015546000828152601460205260409020541061079a57611123611fbe565b60118054600160ff199091168117909155600a80546001600160a81b031916610100339081029190911790921790556007546008546040805192835260208301919091528101919091527fdbef130e3b851b9b16b1f9102fe625f17b425166f9b2345bcb112febf96d25899060600160405180910390a16007546040805142815260208101929092527f67d82b1b182df045662f3a6bad97695da6985ba731e94610accb92fb60ad95a2910160405180910390a161079a6040518060400160405280601981526020017f4e4154494f4e414c5f524553554c545f46494e414c495a45440000000000000081525082611d8a565b61121e611d30565b610be8612088565b3360009081526005602052604090205460ff1661128f5760405162461bcd60e51b815260206004820152602160248201527f4e6f7420617574686f72697a6564206469766973696f6e2076616c696461746f6044820152603960f91b60648201526084016107f1565b60115460ff16156112b25760405162461bcd60e51b81526004016107f1906127ea565b6112ba611f78565b6112c26120c5565b805182511461130b5760405162461bcd60e51b8152602060048201526015602482015274082e4e4c2f240d8cadccee8d040dad2e6dac2e8c6d605b1b60448201526064016107f1565b60008481526006602052604090205460ff16156113635760405162461bcd60e51b8152602060048201526016602482015275149bdbdd08185b1c9958591e481c1c9bd8d95cdcd95960521b60448201526064016107f1565b60008511801561137557506010548511155b6113b75760405162461bcd60e51b8152602060048201526013602482015272125b9d985b1a5908191a5d9a5cda5bdb881251606a1b60448201526064016107f1565b60008581526003602081905260409091200154156114215760405162461bcd60e51b815260206004820152602160248201527f4469766973696f6e20726573756c7420616c7265616479207375626d697474656044820152601960fa1b60648201526084016107f1565b6000805b82518110156114675782818151811061144057611440612a50565b6020026020010151826114539190612a66565b91508061145f81612837565b915050611425565b508381146114ad5760405162461bcd60e51b81526020600482015260136024820152720acdee8ca40c6deeadce840dad2e6dac2e8c6d606b1b60448201526064016107f1565b60008681526003602081905260408220888155600181018890556002810187905542918101919091556004810180546001600160b01b0319163361ffff60a01b1916179055905b845181101561155c5783818151811061150f5761150f612a50565b602002602001015182600501600087848151811061152f5761152f612a50565b6020026020010151815260200190815260200160002081905550808061155490612837565b9150506114f4565b506000868152600660205260408120805460ff19166001179055600e80549161158483612837565b91905055505a6016600082825461159b9190612a66565b9091555050601780549060006115b083612837565b909155505060408051878152602081018790523381830152905188917faeab3af39534cf748023550beff1effec292a9fa6e5ea4d7ec2aed7d471d3a74919081900360600190a26116366040518060400160405280601981526020017f4449564953494f4e5f524553554c545f5355424d49545445440000000000000081525087611d8a565b505061164160018055565b5050505050565b606080606080600f5467ffffffffffffffff8111156116695761166961224e565b604051908082528060200260200182016040528015611692578160200160208202803683370190505b509350600f5467ffffffffffffffff8111156116b0576116b061224e565b6040519080825280602002602001820160405280156116e357816020015b60608152602001906001900390816116ce5790505b509250600f5467ffffffffffffffff8111156117015761170161224e565b60405190808252806020026020018201604052801561173457816020015b606081526020019060019003908161171f5790505b509150600f5467ffffffffffffffff8111156117525761175261224e565b60405190808252806020026020018201604052801561177b578160200160208202803683370190505b50905060015b600f5481116119b8576000600460008381526020019081526020016000206040518060a0016040529081600082015481526020016001820180546117c490612850565b80601f01602080910402602001604051908101604052809291908181526020018280546117f090612850565b801561183d5780601f106118125761010080835404028352916020019161183d565b820191906000526020600020905b81548152906001019060200180831161182057829003601f168201915b5050505050815260200160028201805461185690612850565b80601f016020809104026020016040519081016040528092919081815260200182805461188290612850565b80156118cf5780601f106118a4576101008083540402835291602001916118cf565b820191906000526020600020905b8154815290600101906020018083116118b257829003601f168201915b50505091835250506003820154602082015260049091015460ff161515604090910152805190915086611903600185612a79565b8151811061191357611913612a50565b6020026020010181815250508060200151856001846119329190612a79565b8151811061194257611942612a50565b602090810291909101015260408101518461195e600185612a79565b8151811061196e5761196e612a50565b602090810291909101015260608101518361198a600185612a79565b8151811061199a5761199a612a50565b602090810291909101015250806119b081612837565b915050611781565b5090919293565b3360009081526012602052604081205460ff166119ee5760405162461bcd60e51b81526004016107f190612a0f565b60008481526003602052604090206001810154611a4d5760405162461bcd60e51b815260206004820152601960248201527f4469766973696f6e20726573756c74206e6f7420666f756e640000000000000060448201526064016107f1565b6000611a5e8583600101548661211e565b9050808015611a7957506004820154600160a01b900460ff16155b15611ad65760048201805460ff60a01b1916600160a01b17905560408051808201909152601881527f4449564953494f4e5f524553554c545f5645524946494544000000000000000060208201526001830154611ad69190611d8a565b95945050505050565b600d8181548110611aef57600080fd5b60009182526020909120600590910201805460018201546002830180549294506001600160a01b039091169291610b4590612850565b6060806000806000600460008781526020019081526020016000206040518060a001604052908160008201548152602001600182018054611b6590612850565b80601f0160208091040260200160405190810160405280929190818152602001828054611b9190612850565b8015611bde5780601f10611bb357610100808354040283529160200191611bde565b820191906000526020600020905b815481529060010190602001808311611bc157829003601f168201915b50505050508152602001600282018054611bf790612850565b80601f0160208091040260200160405190810160405280929190818152602001828054611c2390612850565b8015611c705780601f10611c4557610100808354040283529160200191611c70565b820191906000526020600020905b815481529060010190602001808311611c5357829003601f168201915b5050509183525050600382015460208083019190915260049092015460ff161515604091820152908201519082015160608301516080909301519199909850919650945092505050565b611cc2611d30565b6001600160a01b038116611d275760405162461bcd60e51b815260206004820152602660248201527f4f776e61626c653a206e6577206f776e657220697320746865207a65726f206160448201526564647265737360d01b60648201526084016107f1565b61079a81611f28565b6000546001600160a01b03163314610be85760405162461bcd60e51b815260206004820181905260248201527f4f776e61626c653a2063616c6c6572206973206e6f7420746865206f776e657260448201526064016107f1565b6040805160a081018252428152336020820190815291810184815260608201849052600160808301819052600d8054918201815560005282517fd7b6990105719101dabeb77144f2a3385c8033acd3af97e9423a695e81ad1eb5600590920291820190815593517fd7b6990105719101dabeb77144f2a3385c8033acd3af97e9423a695e81ad1eb6820180546001600160a01b0319166001600160a01b0390921691909117905590519192917fd7b6990105719101dabeb77144f2a3385c8033acd3af97e9423a695e81ad1eb790910190611e6590826128d9565b50606082015160038201556080909101516004909101805460ff1916911515919091179055600d54611e9990600190612a79565b7f48ad8d27458f0a043892ddaef5e71d7b0b78a52e2c9f7f66063ca5cc349395053384604051611eca929190612a8c565b60405180910390a25050565b611ede612134565b6002805460ff191690557f5db9ee0a495bf2e6ff9c91a7834c1ba4fdd244a5e8aa4e537bd38aeae4b073aa335b6040516001600160a01b03909116815260200160405180910390a1565b600080546001600160a01b038381166001600160a01b0319831681178455604051919092169283917f8be0079c531659141344cd1fd0a4f28419497f9722a3daafe3b4186f6b6457e09190a35050565b60025460ff1615610be85760405162461bcd60e51b815260206004820152601060248201526f14185d5cd8589b194e881c185d5cd95960821b60448201526064016107f1565b600060015b60105481116120785760008181526003602052604090206002810154611fe99084612a66565b925060015b600f548111612063576000818152600583016020908152604080832054600b9092528220805491928392612023908490612a66565b909155505060008281526004602052604081206003018054839290612049908490612a66565b9091555082915061205b905081612837565b915050611fee565b5050808061207090612837565b915050611fc3565b5060075560105460085542600955565b612090611f78565b6002805460ff191660011790557f62e78cea01bee320cd4e420270b5ea74000d11b0c9f74754ebdbfc544b05a258611f0b3390565b6002600154036121175760405162461bcd60e51b815260206004820152601f60248201527f5265656e7472616e637947756172643a207265656e7472616e742063616c6c0060448201526064016107f1565b6002600155565b60008261212b858461217d565b14949350505050565b60025460ff16610be85760405162461bcd60e51b815260206004820152601460248201527314185d5cd8589b194e881b9bdd081c185d5cd95960621b60448201526064016107f1565b600081815b84518110156121c2576121ae828683815181106121a1576121a1612a50565b60200260200101516121cc565b9150806121ba81612837565b915050612182565b5090505b92915050565b60008183106121e85760008281526020849052604090206121f7565b60008381526020839052604090205b9392505050565b80356001600160a01b038116811461221557600080fd5b919050565b60006020828403121561222c57600080fd5b6121f7826121fe565b60006020828403121561224757600080fd5b5035919050565b634e487b7160e01b600052604160045260246000fd5b604051601f8201601f1916810167ffffffffffffffff8111828210171561228d5761228d61224e565b604052919050565b600082601f8301126122a657600080fd5b813567ffffffffffffffff8111156122c0576122c061224e565b6122d3601f8201601f1916602001612264565b8181528460208386010111156122e857600080fd5b816020850160208301376000918101602001919091529392505050565b6000806040838503121561231857600080fd5b823567ffffffffffffffff8082111561233057600080fd5b61233c86838701612295565b9350602085013591508082111561235257600080fd5b5061235f85828601612295565b9150509250929050565b60005b8381101561238457818101518382015260200161236c565b50506000910152565b600081518084526123a5816020860160208601612369565b601f01601f19169290920160200192915050565b60006020808301818452808551808352604092508286019150828160051b87010184880160005b8381101561244d57888303603f19018552815180518452878101516001600160a01b0316888501528681015160a0888601819052906124218287018261238d565b6060848101519088015260809384015115159390960192909252505093860193908601906001016123e0565b509098975050505050505050565b85815260a06020820152600061247460a083018761238d565b8281036040840152612486818761238d565b606084019590955250509015156080909101529392505050565b600067ffffffffffffffff8211156124ba576124ba61224e565b5060051b60200190565b600082601f8301126124d557600080fd5b813560206124ea6124e5836124a0565b612264565b82815260059290921b8401810191818101908684111561250957600080fd5b8286015b84811015612524578035835291830191830161250d565b509695505050505050565b600080600080600060a0868803121561254757600080fd5b853594506020860135935060408601359250606086013567ffffffffffffffff8082111561257457600080fd5b61258089838a016124c4565b9350608088013591508082111561259657600080fd5b506125a3888289016124c4565b9150509295509295909350565b600081518084526020808501945080840160005b838110156125e0578151875295820195908201906001016125c4565b509495945050505050565b600081518084526020808501808196508360051b8101915082860160005b8581101561263357828403895261262184835161238d565b98850198935090840190600101612609565b5091979650505050505050565b60808152600061265360808301876125b0565b828103602084015261266581876125eb565b9050828103604084015261267981866125eb565b9050828103606084015261268d81856125b0565b979650505050505050565b6000806000606084860312156126ad57600080fd5b8335925060208085013567ffffffffffffffff8111156126cc57600080fd5b8501601f810187136126dd57600080fd5b80356126eb6124e5826124a0565b81815260059190911b8201830190838101908983111561270a57600080fd5b928401925b828410156127285783358252928401929084019061270f565b96999698505050506040949094013593505050565b6000806040838503121561275057600080fd5b82359150612760602084016121fe565b90509250929050565b8581526001600160a01b038516602082015260a0604082018190526000906127939083018661238d565b6060830194909452509015156080909101529392505050565b6080815260006127bf608083018761238d565b82810360208401526127d1818761238d565b6040840195909552505090151560609091015292915050565b6020808252601a908201527f456c656374696f6e20616c72656164792066696e616c697a6564000000000000604082015260600190565b634e487b7160e01b600052601160045260246000fd5b60006001820161284957612849612821565b5060010190565b600181811c9082168061286457607f821691505b60208210810361288457634e487b7160e01b600052602260045260246000fd5b50919050565b601f8211156128d457600081815260208120601f850160051c810160208610156128b15750805b601f850160051c820191505b818110156128d0578281556001016128bd565b5050505b505050565b815167ffffffffffffffff8111156128f3576128f361224e565b612907816129018454612850565b8461288a565b602080601f83116001811461293c57600084156129245750858301515b600019600386901b1c1916600185901b1785556128d0565b600085815260208120601f198616915b8281101561296b5788860151825594840194600190910190840161294c565b50858210156129895787850151600019600388901b60f8161c191681555b5050505050600190811b01905550565b6040815260006129ac604083018561238d565b8281036020840152611ad6818561238d565b600083516129d0818460208801612369565b8351908301906129e4818360208801612369565b01949350505050565b600082612a0a57634e487b7160e01b600052601260045260246000fd5b500490565b60208082526021908201527f4e6f7420617574686f72697a6564206e6174696f6e616c2076616c696461746f6040820152603960f91b606082015260800190565b634e487b7160e01b600052603260045260246000fd5b808201808211156121c6576121c6612821565b818103818111156121c6576121c6612821565b6001600160a01b0383168152604060208201819052600090612ab09083018461238d565b94935050505056fea26469706673582212200130b59c5749a66886ff3b0ca298faa1034717db798e83ce13a6b19400d77d7564736f6c63430008130033",
  "linkReferences": {},
  "deployedLinkReferences": {}
}